:0400000065EF00F0B8
:10000800FACF82F0FBCF83F0E9CF84F0F4EF0BF066
:10001800D8CF2AF0E8CF2BF0E0CF2CF0FACF2DF094
:10002800FBCF2EF0E9CF2FF0EACF30F0E1CF31F05F
:10003800E2CF32F0D9CF33F0DACF34F0F3CF35F066
:10004800F4CF36F0F6CF37F0F7CF38F0F8CF39F0F5
:10005800F5CF3AF0F2A403D0F29439EC05F09EA063
:1000680003D09E90F6EC0EF09EAA03D09E9AA1ECC7
:1000780008F09EB89DA802D038EC0AF03AC0F5FF07
:1000880039C0F8FF38C0F7FF37C0F6FF36C0F4FFB5
:1000980035C0F3FF34C0DAFF33C0D9FF32C0E2FF06
:1000A80031C0E1FF30C0EAFF2FC0E9FF2EC0FBFFDF
:1000B8002DC0FAFF2CC0E0FF2BC0E8FF2AC0D8FFF4
:1000C80010005EEF0FF029D2000120EE45F000018C
:1000D800B351D9260001B451DA22DF5000017D6FF7
:1000E800000120EE44F00001B351D9260001B451BB
:1000F800DA22DF5000017D19D8B415D0000120EEB6
:1001080044F00001B351D9260001B451DA220001AC
:1001180010EE46F00001B351E1260001B451E2228D
:10012800E750DF621BD0000120EE21F00001B3513F
:10013800D9260001B451DA22090EDF6E000120EE43
:1001480044F00001B351D9260001B451DA22DF503E
:1001580000017D6F00017D29C96E1200000120EEAB
:1001680021F00001B351D9260001B451DA22010E61
:10017800DF6EC5841200C5BC0ED0000120EE21F050
:100188000001B351D9260001B451DA220A0EDF6EFC
:10019800C586C5801200000120EE21F00001B35190
:1001A800D9260001B451DA22010EDF6E350E0001A6
:1001B800766F000E0001786F000E0001776F000E59
:1001C80036EC0FF0C5841200FF0E00017D6FFF0EA4
:1001D8007E6F000120EE1EF00001B351D926000108
:1001E800B451DA22DF5000017F6F806B00017D512E
:1001F80000017F2700017E5100018023000120EECD
:100208001FF00001B351D9260001B451DA22DF50A2
:100218000001816F0001815100017F198011D8B45C
:1002280032D0000120EE21F00001B351D92600019F
:10023800B451DA220B0EDF6E000120EE1FF0000130
:10024800B351D9260001B451DA22DF5000017D6F85
:1002580000017D51010DF3500001B325D96EF45012
:100268000001B421DA6EC9CFDFFF000120EE1FF0D4
:100278000001B351D9260001B451DA22DF2AC5881A
:10028800C59AC5801200000120EE21F00001B3518B
:10029800D9260001B451DA220C0EDF6EC588C58A52
:1002A800C5801200000120EE21F00001B351D926CB
:1002B8000001B451DA220A0EDF6EC586C58012002D
:1002C800000120EE21F00001B351D9260001B451FC
:1002D800DA22010EDF6E340E0001766F0001B4C021
:1002E80078F00001B3C077F0000120EE1EF00001A5
:1002F800B351D9260001B451DA22DF5036EC0FF0A1
:10030800C5841200000120EE21F00001B351D92666
:100318000001B451DA22070EDF6E000120EE44F02E
:100328000001B351D9260001B451DA22DF50C96E59
:100338001200C5BACBD0C59C000E0001796F2E0EF5
:100348000001786F240E0001B32500017A6F000EBA
:100358000001B42100017B6F000120EE42F0000192
:10036800B351D9260001B451DA22DF50ADEC0EF0BA
:10037800000120EE43F00001B351D9260001B45129
:10038800DA22DF5000017D6F000120EE42F000010B
:10039800B351D9260001B451DA22DF5000017D5D46
:1003A800D8B034D0000120EE21F00001B351D92695
:1003B8000001B451DA22070EDF6E000120EE43F08F
:1003C8000001B351D9260001B451DA22DF2A000115
:1003D80020EE43F00001B351D9260001B451DA22CE
:1003E800DF5000017D6F7E6B230E00017D27000E1C
:1003F8007E2300017D510001B325D96E00017E5195
:100408000001B421DA6EDF50C96E1200000120EE3F
:1004180043F00001B351D9260001B451DA2200019A
:1004280010EE42F00001B351E1260001B451E2227E
:10043800E750DF6224D0320E0001766F000E000113
:10044800786F000E0001776F000E36EC0FF0000198
:1004580020EE21F00001B351D9260001B451DA226F
:10046800010EDF6E000120EE42F00001B351D926E3
:100478000001B451DA22000EDF6EC5841200330E7B
:100488000001766F240E0001B3250001776F000E7E
:100498000001B4210001786F000120EE42F0000154
:1004A800B351D9260001B451DA22DF5036EC0FF0EF
:1004B800000120EE21F00001B351D9260001B4510A
:1004C800DA22010EDF6EC58CC5841200330E0001DE
:1004D800766F240E0001B3250001776F000E00012E
:1004E800B4210001786F000120EE42F00001B35101
:1004F800D9260001B451DA22DF5036EC0FF00001A2
:1005080020EE21F00001B351D9260001B451DA22BE
:10051800010EDF6EC58CC5841200000120EE21F0AB
:100528000001B351D9260001B451DA22DF50010A83
:10053800D8B41200070AD8B4E5D6010AD8B4F9D657
:100548000F0AD8B4C1D5010AD8B415D6030AD8B44D
:100558003BD6010AD8B4A6D6070AD8A41200B0D64A
:10056800E00ED36E9B8C0101010E0001916F010119
:10057800330E0001906FDFEC0EF00101010E000157
:10058800916F0101750E0001906F9BEC0CF0010159
:10059800010E0001916F01012F0E0001906FCDEC4B
:1005A8000FF067EC0CF0960E4BEC0FF0000E00010C
:1005B800906F9B0E2BEC0EF0F1949F909F9A9F9852
:1005C8009F869A0E0001906F9E0EB4EC0BF09D86EC
:1005D800000E0001916F190E0001906F6C0E2FEC48
:1005E8000CF008EC10F0969096929694929492964D
:1005F800948E949C000E7F6ECF0EB06EAD847E8676
:10060800AD98AC8EAD8A030E0101286F000E010172
:10061800296F0A0E01012A6F000E01012B6F0A0EC5
:1006280001012C6F01012D690A0E01011F6F0B0ECC
:100638000101206F0C0E0101216F0D0E0101226FC7
:100648000E0E0101236FDFEC0AF00101010E00011B
:10065800A96F0101310E0001A86F0101010E00010F
:10066800AB6F0101000E0001AA6F1E0E94EC0EF094
:100678000101326F010132BF49D034D08D820101AE
:10068800010E0001916F0101260E0001906F01011A
:10069800000131C192F00001936B01013251000158
:1006A800946F0001956B000194BF95070101010E3D
:1006B8000001976F0101000E0001966F01EC10F028
:1006C8008D9224D000C12EF121D00101010E00012C
:1006D800AB6F0101000E0001AA6F010132516CECF1
:1006E80004F014D0010131510A0AD8B4C7D7220A3C
:1006F800D8B4E8D7010AD8B4E5D7070AD8B406D0E1
:10070800010AD8B4E2D71B0AD8B4DFD70101010E19
:100718000001A96F0101310E0001A86F0101010E4E
:100728000001AB6F0101000E0001AA6F1E0E7BECE9
:100738000EF00101326F010132BF85D7BDD0010132
:10074800010E0001AB6F01012F0E0001AA6F01011C
:10075800000131C1ACF00001AD6B01013251000163
:10076800AE6F0001AF6B0001AEBFAF070101010E14
:100778000001B16F0101000E0001B06F30EC0DF007
:1007880062D70101010E0001916F0101240E0001E1
:10079800906F0101000131C192F00001936B0101DA
:1007A80032510001946F0001956B000194BF9507C9
:1007B8000101010E0001976F0101000E0001966F03
:1007C80049EC0EF040D700C12EF164D0010E0101B2
:1007D800326F0A0E0101006F32C1AAF00101010E49
:1007E8000001AC6F0101000E0001AB6F9A0E92EC94
:1007F8000AF029D7010E0101326F0B0E0101006FBB
:1008080032C1AAF00101010E0001AC6F0101000E16
:100818000001AB6F9A0E92EC0AF015D7010E010198
:10082800326F0C0E0101006F32C1AAF00101010EF6
:100838000001AC6F0101000E0001AB6F9A0E92EC43
:100848000AF001D7010E0101326F0D0E0101006F90
:1008580032C1AAF00101010E0001AC6F0101000EC6
:100868000001AB6F9A0E92EC0AF0EDD6010E010171
:10087800326F0E0E0101006F32C1AAF00101010EA4
:100888000001AC6F0101000E0001AB6F9A0E92ECF3
:100898000AF0D9D601012E510A0AD8B497D7010A0D
:1008A800D8B4A8D7070AD8B4B9D7010AD8B4CAD7D0
:1008B800030AD8B4DBD7C7D6010131510B0AD8B423
:1008C8003ED7150AD8B45DD7010AD8B47CD7BBD6B1
:1008D8000001AD6F89860001AD51170AD8A460D018
:1008E80020EE3FF03B50D9263C50DA22000EDF6E56
:1008F80020EE3EF03B50D9263C50DA220001ADC034
:10090800DFFF20EE40F03B50D9263C50DA22DF5082
:100918000001AC6F0001AC510001906F0001916BB8
:10092800000E0001936F0001926914EC09F00001B8
:100938009051AAC0D9FFABC0DAFFDF6E000120EEEC
:1009480001F00001AA51D9260001AB51DA22080EA4
:10095800DF6E000120EE16F00001AA51D926000131
:10096800AB51DA22FF0EDF6E290E0001A66F0001DF
:10097800ABC0A8F00001AAC0A7F020EE3EF03B50A3
:10098800D9263C50DA22DF500CEC0FF020EE40F074
:100998003B50D9263C50DA22DF2A9D8889961200DE
:1009A8000001AD51070AD8A4120020EE3FF03B50D9
:1009B800D9263C50DA22000EDF6E20EE3EF03B5086
:1009C800D9263C50DA220001ADC0DFFF20EE40F00E
:1009D8003B50D9263C50DA22DF500001AC6F0001B1
:1009E800AC510001906F0001916B000E0001936FF4
:1009F8000001926914EC09F000019051AAC0D9FFD6
:100A0800ABC0DAFFDF6E000120EE01F00001AA5151
:100A1800D9260001AB51DA22040EDF6E000120EE68
:100A280006F00001AA51D9260001AB51DA22FF0EC7
:100A3800DF6E290E0001A66F0001ABC0A8F000010F
:100A4800AAC0A7F020EE3EF03B50D9263C50DA224F
:100A5800DF500CEC0FF020EE40F03B50D9263C5014
:100A6800DA22DF2A9D8889961200000E026E000E97
:100A7800016EE8EC0FF0000E1A6E250E196E000ECE
:100A88001C6E270E1B6E020E82EC0FF01E6E1F6A84
:100A98001EBE1F061E50020A1F10D8A409D00A0E37
:100AA800176E000E196E270E186E020EA4EC0FF0CA
:100AB8000A0E206E0B0E216E0C0E226E0D0E236E8A
:100AC8000E0E246E29C001F0026A000E046E050E97
:100AD800036E2AEC0BF002500110D8A40BD01F0EA5
:100AE800176E000E196E200E186E010E94EC0FF0A2
:100AF800000E296E29C001F0026A000E046E050E70
:100B0800036E2AEC0BF001040210D8A40BD01F0EC0
:100B1800176E000E196E210E186E010E94EC0FF070
:100B2800010E296E29C001F0026A000E046E050E3E
:100B3800036E2AEC0BF00150020A0210D8A40BD065
:100B48001F0E176E000E196E220E186E010E94EC11
:100B58000FF0020E296E29C001F0026A000E046E21
:100B6800050E036E2AEC0BF00150030A0210D8A4FC
:100B78000BD01F0E176E000E196E230E186E010E85
:100B880094EC0FF0030E296E29C001F0026A000EE2
:100B9800046E050E036E2AEC0BF00150040A0210D5
:100BA800D8A40BD01F0E176E000E196E240E186EE7
:100BB800010E94EC0FF0040E296E292A1200000190
:100BC80021EE4BF000019A51D92600019B51DA22FF
:100BD800DF500001A36F0001A351210DF350000164
:100BE8009A250001A66FF45000019B210001A76F10
:100BF800010EA6C0D9FFA7C0DAFFDF627DD00001D1
:100C080020EE01F00001A651D9260001A751DA22F1
:100C1800DF5000019C5DD8B002D0FD0E120000012B
:100C280020EE01F00001A651D9260001A751DA22D1
:100C3800DF500001A16F0001A1510001A46F000164
:100C4800A56B0001A0C091F000019FC090F0030EB9
:100C58000001A6250001A16F000E0001A7210001D7
:100C6800A26FA1C092F0A2C093F0A4C094F0A5C056
:100C780095F05FEC0DF0000121EE4BF000019A5168
:100C8800D92600019B51DA22000111EE4BF0000138
:100C98009A51E12600019B51E222E7500001A16F21
:100CA800010E0001A1250001906F0001916B000E5B
:100CB8009123000E0001936F0A0E0001926F14EC4D
:100CC80009F000019051DF6E000120EE02F00001F2
:100CD800A651D9260001A751DA229DC0E1FF9EC086
:100CE800E2FFDFCFE7FFA6C0D9FFA7C0DAFF000EFB
:100CF800DF6E0001A4511200FC0E1200000121EE6B
:100D08004BF000016A51D92600016B51DA22DF50FD
:100D18000001736F00017351210DF35000016A2522
:100D28000001766FF45000016B210001776F010E0E
:100D380076C0D9FF77C0DAFFDF627DD0000120EEF0
:100D480001F000017651D92600017751DA22DF50EF
:100D580000016C5DD8B002D0FD0E1200000120EE3B
:100D680001F000017651D92600017751DA22DF50CF
:100D78000001716F000171510001746F0001756B02
:100D8800000170C061F000016FC060F0030E000147
:100D980076250001716F000E000177210001726F46
:100DA80071C062F072C063F074C064F075C065F021
:100DB80087EC0DF0000121EE4BF000016A51D926B5
:100DC80000016B51DA22000111EE4BF000016A516B
:100DD800E12600016B51E222E7500001716F010E1C
:100DE800000171250001606F0001616B000E612335
:100DF800000E0001636F0A0E0001626F76EC09F0C5
:100E080000016051DF6E000120EE02F00001765112
:100E1800D92600017751DA226DC0E1FF6EC0E2FFEA
:100E2800DFCFE7FF76C0D9FF77C0DAFF000EDF6EAD
:100E3800000174511200FC0E120000019CC0A1F0C8
:100E48000001A26B000121EE4AF000019A51D92657
:100E580000019B51DA22DF500001A36F0001A3516A
:100E6800210DF35000019A250001A46FF4500001F0
:100E78009B210001A56FA4C0D9FFA5C0DAFFDF50F0
:100E8800D8B402D0FF0E1200000120EE01F00001DC
:100E9800A451D9260001A551DA2200019CC0DFFF28
:100EA800000120EE02F00001A451D9260001A5514D
:100EB800DA2200019DC0DFFF030E0001A425000116
:100EC800906F000E0001A5210001916F00019FC0E5
:100ED80093F000019EC092F0A1C094F0A2C095F0DA
:100EE8005FEC0DF0000121EE4AF000019A51D9267D
:100EF80000019B51DA22000111EE4AF000019A51DB
:100F0800E12600019B51E222E7500001A06F010E8B
:100F18000001A0250001906F0001916B000E912344
:100F2800000E0001936F0A0E0001926F14EC09F095
:100F380000019051DF6EA4C0D9FFA5C0DAFF010EF1
:100F4800DF6E010E120000016CC071F00001726BBF
:100F5800000121EE4AF000016A51D92600016B51C7
:100F6800DA22DF500001736F00017351210DF35035
:100F780000016A250001746FF45000016B21000123
:100F8800756F74C0D9FF75C0DAFFDF50D8B402D0CE
:100F9800FF0E1200000120EE01F000017451D92665
:100FA80000017551DA2200016CC0DFFF000120EE5C
:100FB80002F000017451D92600017551DA220001AE
:100FC8006DC0DFFF030E000174250001606F000E85
:100FD800000175210001616F00016FC063F000011D
:100FE8006EC062F071C064F072C065F087EC0DF0FD
:100FF800000121EE4AF000016A51D92600016B5127
:10100800DA22000111EE4AF000016A51E1260001DE
:101018006B51E222E7500001706F010E000170254C
:101028000001606F0001616B000E6123000E00017A
:10103800636F0A0E0001626F76EC09F000016051DF
:10104800DF6E74C0D9FF75C0DAFF010EDF6E010EC6
:10105800120021EE4BF00B50D9260C50DA22DF504B
:10106800146E1450210DF3500B24176EF4500C20FD
:10107800186E010E17C0D9FF18C0DAFFDF625BD007
:1010880020EE01F01750D9261850DA22DF500D5CF7
:10109800D8B002D0FD0E120020EE01F01750D9266C
:1010A8001850DA22DF50126E1250156E166A11C0EF
:1010B80002F010C001F0030E1724126E000E182063
:1010C800136E12C003F013C004F015C005F016C06B
:1010D80006F0AFEC0DF021EE4BF00B50D9260C507A
:1010E800DA2211EE4BF00B50E1260C50E222E750C9
:1010F800126E010E1224016E026A000E0222000E08
:10110800046E0A0E036E2AEC0BF00150DF6E20EE1F
:1011180002F01750D9261850DA220EC0E1FF0FC08E
:10112800E2FFDFCFE7FF17C0D9FF18C0DAFF000ED4
:10113800DF6E15501200FC0E12009EAA63D020EE3E
:101148001EF03B50D9263C50DA22DF501B6E1B5054
:10115800010DF3503B24D96EF4503C20DA6EB4EC08
:101168000FF0DF6E20EE1EF03B50D9263C50DA22FD
:10117800DF2A20EE1EF03B50D9263C50DA22060E1C
:10118800DF6231D0FF0E1B6EFF0E1C6E20EE1EF0CC
:101198003B50D9263C50DA22DF501D6E1E6A1B5088
:1011A8001D261C501E221D503B24D96E1E503C206B
:1011B800DA6EFF0EDF6217D01F0E176E3CC019F0F3
:1011C8003BC018F020EE1EF03B50D9263C50DA22E6
:1011D800DF5094EC0FF020EE1EF03B50D9263C5027
:1011E800DA22000EDF6E1F0E176E3CC019F03BC0EE
:1011F80018F020EE1EF03B50D9263C50DA22DF5082
:1012080094EC0FF03DA61200AC98AC881E0E176E39
:10121800000E196E000E186E000E94EC0FF01200FE
:10122800000E0001956F00019151800AF36E800E47
:10123800F35C000ED8B4905DD8B009D00001906D71
:101248000001911FD8B0912B010E0001956F00018C
:101258009351800AF36E800EF35C000ED8B4925D51
:10126800D8B006D00001926D0001931FD8B0932B1F
:10127800000193519211D8B426D0010E0001946F49
:1012880006D00001D890923793370001942B0001C3
:1012980093AFF7D7000192510001905D000193517F
:1012A80000019159D8A008D0000192510001905F27
:1012B800000193510001915B0001D8909333923360
:1012C8000001942FE7D700019551D8B406D000014A
:1012D800906D0001911FD8B0912B90C090F091C0F3
:1012E80091F01200000E0001656F00016151800A43
:1012F800F36E800EF35C000ED8B4605DD8B009D0F0
:101308000001606D0001611FD8B0612B010E000162
:10131800656F00016351800AF36E800EF35C000E66
:10132800D8B4625DD8B006D00001626D0001631FB9
:10133800D8B0632B000163516211D8B426D0010ED6
:101348000001646F06D00001D8906237633700014E
:10135800642B000163AFF7D7000162510001605DA3
:101368000001635100016159D8A008D00001625101
:101378000001605F000163510001615B0001D890CA
:10138800633362330001642FE7D700016551D8B495
:1013980006D00001606D0001611FD8B0612B60C0EC
:1013A80060F061C061F012000DC012F0136A21EE06
:1013B8004AF00B50D9260C50DA22DF50146E145024
:1013C800210DF3500B24156EF4500C20166E15C029
:1013D800D9FF16C0DAFFDF50D8B402D0FF0E1200D2
:1013E80020EE01F01550D9261650DA220DC0DFFF85
:1013F80020EE02F01550D9261650DA220EC0DFFF73
:10140800030E1524016E000E1620026E10C004F0A3
:101418000FC003F012C005F013C006F0AFEC0DF0DA
:1014280021EE4AF00B50D9260C50DA2211EE4AF080
:101438000B50E1260C50E222E750116E010E1124E8
:10144800016E026A000E0222000E046E0A0E036E7E
:101458002AEC0BF00150DF6E15C0D9FF16C0DAFF79
:10146800010EDF6E010E1200898420EE3EF03B5023
:10147800D9263C50DA22030EDF6201D013D0000EC9
:101488001A6E290E196E200E3B241B6E000E3C208E
:101498001C6E20EE3EF03B50D9263C50DA22DF503D
:1014A80070EC0FF0ADA238D020EE3FF03B50D926BB
:1014B8003C50DA22DF501E6E20EE3EF03B50D9261B
:1014C8003C50DA22DF501E5CD8B01DD020EE3FF031
:1014D8003B50D9263C50DA22DF2A20EE3FF03B5021
:1014E800D9263C50DA22DF501E6E1F6A1F0E1E26B8
:1014F800000E1F221E503B24D96E1F503C20DA6E6E
:10150800DF50AE6E09D020EE3EF03B50D9263C505D
:10151800DA22000EDF6E9D98899412000001AD6FEB
:10152800C7B41200000120EE21F00001B351D92602
:101538000001B451DA22010EDF621200000120EE30
:1015480044F00001B351D9260001B451DA22000158
:10155800ADC0DFFF000120EE21F00001B351D92614
:101568000001B451DA22060EDF6E2E0E0001A66FBE
:101578000001ACC0A8F00001ABC0A7F00001AA515F
:1015880021EC0FF0000120EE43F00001B351D92601
:101598000001B451DA22000EDF6E000120EE42F0A5
:1015A8000001B351D9260001B451DA220001AAC0C2
:1015B800DFFFC58012000DEC0EF00001955100010F
:1015C8009411D8B41200010E0001B56F060E000187
:1015D800916FED0E0001906F62EC0EF00009D8B427
:1015E80004D0000E0001B56F1200080E0001916FC3
:1015F800390E0001906F62EC0EF00009D8B404D0E7
:10160800000E0001B56F1200050E0001916FA10ECA
:101618000001906F62EC0EF00009D8B404D0000EFF
:101628000001B56F1200040E0001916F550E000104
:10163800906F62EC0EF00009D8B404D0000E0001DF
:10164800B56F12000A0EC3EC0FF0C0D7000E066E7D
:101658000250800AF36E800EF35C000ED8B4015C71
:10166800D8B006D0016C021ED8B0022A010E066E50
:101678000450800AF36E800EF35C000ED8B4035C4D
:10168800D8B004D0036C041ED8B0042A0450031048
:10169800D8B418D0010E056E04D0D890033604369D
:1016A800052A04AEFAD70350015C04500258D8A0AA
:1016B80004D00350015E0450025AD8900432033219
:1016C800052EF1D70650D8B404D0016C021ED8B04C
:1016D800022A01C001F002C002F012000001B56741
:1016E80001D01200EEEC0DF000016351000162110F
:1016F800D8A41200F9EC0FF000016151000160114B
:10170800D8B41200060E0001616FED0E0001606F83
:10171800C6EC0EF00009D8A41200080E0001616F93
:10172800390E0001606FC6EC0EF00009D8A4120053
:10173800050E0001616FA10E0001606FC6EC0EF08E
:101748000009D8A41200040E0001616F550E0001B3
:10175800606FC6EC0EF00009D8B40DEC10F0120062
:101768000001916F000120EE21F00001B351D9264C
:101778000001B451DA22010EDF6E000EC76E000EB2
:10178800C66E000EC56E080EC6129388938AC78E61
:10179800C79C770EC86E000120EE45F00001B351DA
:1017A800D9260001B451DA22000191C0DFFF0001FF
:1017B80020EE46F00001B351D9260001B451DA22D7
:1017C800000190C0DFFF000120EE1EF00001B351C0
:1017D800D9260001B451DA221E0EDF6EC68A120025
:1017E800EACF85F0E1CF86F0E2CF87F0D9CF88F055
:1017F800DACF89F0F3CF8AF0F4CF8BF0F6CF8CF004
:10180800F7CF8DF0F8CF8EF0F5CF8FF09EB69DA66E
:1018180003D09E9667EC00F072EC0BF08FC0F5FFDA
:101828008EC0F8FF8DC0F7FF8CC0F6FF8BC0F4FFA9
:101838008AC0F3FF89C0DAFF88C0D9FF87C0E2FFFA
:1018480086C0E1FF85C0EAFF84C0E9FF83C0FBFFD3
:1018580082C0FAFF11000001956F000EAD6E000EF8
:10186800AC6E000195B1AD88000195A302D0AD8C96
:10187800AC8C000195B5AD8E000195A702D0AC885F
:1018880001D0AC8A000195B9AD84000195BBAC8646
:10189800000195AD02D09D8A01D09D9A000195AFB7
:1018A80002D09D8801D09D9890C0B0FF000191C0E2
:1018B80092F092C093F00001946B000193517F6EF7
:1018C800AD8AAC8E1200000E0001B56F080E000143
:1018D800916F390E0001906FCEEC0CF0060E0001EE
:1018E800916FED0E0001906FCEEC0CF0050E00012B
:1018F800916FA10E0001906FCEEC0CF0040E000168
:10190800916F550E0001906FCEEC0CF0030E0001A4
:10191800916F090E0001906FCEEC0CF0010E0001E2
:10192800916FBD0E0001906FCEEC0CF0120000011B
:1019380091C0B4F0000190C0B3F0000120EE1EF099
:101948000001B351D9260001B451DA22000EDF6E2E
:10195800000120EE20F00001B351D9260001B45156
:10196800DA22000EDF6E000120EE21F00001B351F3
:10197800D9260001B451DA22010EDF6E000120EEF3
:1019880023F00001B351D9260001B451DA22000E28
:10199800DF6E1200000121EE4AF000019051D926B5
:1019A80000019151DA22000EDF6E000121EE4BF0AA
:1019B80000019051D92600019151DA22000EDF6E04
:1019C800000E0001926F090E0001926501D012000D
:1019D80000019251210DF35000019025D96EF45069
:1019E80000019121DA6E000EDF6E0001922B090EC4
:1019F80000019265EDD71200000193519211D8B4FD
:101A080026D0010E0001946F06D00001D8909237BD
:101A180093370001942B000193AFF7D7000192513F
:101A28000001905D0001935100019159D8A008D0A0
:101A3800000192510001905F000193510001915BF8
:101A48000001D890933392330001942FE7D790C0C8
:101A580090F091C091F01200AAC0D9FFABC0DAFF94
:101A6800DE2A000EDD22AAC0D9FFABC0DAFF0001D2
:101A7800DECF90F00001DDCF91F0000E0001936FF2
:101A88000A0E0001926F00EC0DF000019051090A56
:101A980000019111D8A412001F0E0001A66F0001C9
:101AA800ABC0A8F00001AAC0A7F0020E21EC0FF00D
:101AB8000001B26F1200000193C099F0000192C0BA
:101AC80098F0000191C097F0000190C096F010D0F6
:101AD80098C0D9FF99C0DAFF96C0E1FF97C0E2FF2E
:101AE800DFCFE7FF0001984B992B0001964B972B0E
:101AF80000019407D8A0950700019429D8B4952926
:101B0800D8B41200E5D7000163C069F0000162C0D3
:101B180068F0000161C067F0000160C066F010D095
:101B280068C0D9FF69C0DAFF66C0E1FF67C0E2FF9D
:101B3800DFCFE7FF0001684B692B0001664B672B7D
:101B480000016407D8A0650700016429D8B4652995
:101B5800D8B41200E5D704C00AF003C009F002C0E7
:101B680008F001C007F00ED009C0D9FF0AC0DAFF9B
:101B780007C0E1FF08C0E2FFDFCFE7FF094A0A2AF2
:101B8800074A082A0506D8A006060528D8B4062854
:101B9800D8B41200E9D7F2AC07D0000E0001936F59
:101BA800000E0001926F1200F1EC0FF0000191514C
:101BB80000019011D8B407D0000E0001936F000EF9
:101BC8000001926F1200000E0001936F010E0001D8
:101BD800926F1200F2AC07D0000E0001636F000E86
:101BE8000001626F1200F9EC0FF000016151000171
:101BF8006011D8B407D0000E0001636F000E000119
:101C0800626F1200000E0001636F010E0001626F27
:101C18001200CFEC0DF00001935100019211D8A4ED
:101C28000FD0F1EC0FF00001915100019011D8A4F0
:101C380007D0000E0001956F010E0001946F12008D
:101C4800000E0001956F000E0001946F1200000154
:101C5800926F00019051F30B9A6E92C091F07F0E33
:101C6800000191170001D8909135CD6E000ECF6E0E
:101C7800000ECE6E9E90000192AF02D09D8001D0E2
:101C88009D909ABE9A86CD801200000192511E0A3C
:101C98009311D8B41200000192511F0A9311D8A4CD
:101CA80012000001945100019625D96E000195514A
:101CB80000019721DA6E000EDF6E1200000121EE9E
:101CC8004BF000019051D92600019151DA22DF50E2
:101CD8000001926F00019251210DF35000019025EF
:101CE800D96EF45000019121DA6EDF501200000124
:101CF800AC6F080E00019B6F390E00019A6FACC0E3
:101D08009CF00001A9C09EF00001A8C09DF0000150
:101D1800ABC0A0F00001AAC09FF0E3EC05F01200F0
:101D28000001AC6F060E00019B6FED0E00019A6F6B
:101D3800ACC09CF00001A9C09EF00001A8C09DF0B5
:101D48000001ABC0A0F00001AAC09FF0E3EC05F0D1
:101D5800120000017C6F010E00016B6FBD0E0001C7
:101D68006A6F7CC06CF0000179C06EF0000178C029
:101D78006DF000017BC070F000017AC06FF082EC5A
:101D880006F01200000121EE4BF000016051D92647
:101D980000016151DA22DF500001626F00016251D7
:101DA800210DF35000016025D96EF4500001612126
:101DB800DA6EDF501200000191C03CF0000190C0C3
:101DC8003BF020EE1EF03B50D9263C50DA22000EA4
:101DD800DF6E20EE41F03B50D9263C50DA22000E4F
:101DE800DF6E1200DFEC0FF001C01BF002C01CF028
:101DF8000B0E176E000E196E000E186E000E94EC86
:101E08000FF0000E026E000E016ED6EC0FF01200FD
:101E18000001A96F030E00019B6F090E00019A6F64
:101E2800A9C09CF0A6C09DF00001A8C09FF00001C9
:101E3800A7C09EF021EC07F012000001A96F010E67
:101E480000019B6FBD0E00019A6FA9C09CF0A6C04F
:101E58009DF00001A8C09FF00001A7C09EF021ECF2
:101E680007F012000001796F060E00016B6FED0E8E
:101E780000016A6F79C06CF076C06DF0000178C01F
:101E88006FF0000177C06EF0A7EC07F012000001B8
:101E9800906F000190517F0BD56E000ED76E000E2B
:101EA800D66EF294000190AF02D0F28A01D0F29A75
:101EB800D58E120001EEBDF017EEC8F0EE6AE550BF
:101EC800E150FCE1E250FAE10001B56B3D6A000E19
:101ED800F86E0001B4EF02F01D6E030E0C6E090ED1
:101EE8000B6E1DC00DF01AC00FF019C00EF01CC00B
:101EF80011F01BC010F02DEC08F012001D6E010E41
:101F08000C6EBD0E0B6E1DC00DF01AC00FF019C07F
:101F18000EF01CC011F01BC010F02DEC08F01200E0
:101F28001A6E080E0C6E390E0B6E1AC00DF017C023
:101F38000EF019C010F018C00FF0D8EC09F012001C
:101F48001A6E060E0C6EED0E0B6E1AC00DF017C051
:101F58000EF019C010F018C00FF0D8EC09F01200FC
:101F6800F20E3D16ACAC03D03D90ACB03D80ACB4A5
:101F78003D84ACB23D86AFCF01F0015012000001A4
:101F8800906FFA0E00F0E82EFDD70001902FF9D7D8
:101F9800120090C0D9FF91C0DAFF000EDE6E000E6D
:101FA800DD6E120001C003F002C004F004C0CFFFD0
:101FB80003C0CEFF1200CECF03F0CFCF04F003C092
:101FC80001F004C002F0120001C003F002C004F0E6
:101FD80004C0D7FF03C0D6FF1200000EF2AE010EF8
:101FE8000001906F0001916B1200000EF2AE010E1D
:101FF8000001606F0001616B1200000197C099F049
:10200800000196C098F01200D08EF28EF28CF28CFD
:082018001200D38E0300120038
:08FFF8008AF795FFF2F9FFF111
:00000001FF
