:0400000065EF00F0B8
:10000800FACF82F0FBCF83F0E9CF84F0F8EF0AF063
:10001800D8CF24F0E8CF25F0E0CF26F0FACF27F0AC
:10002800FBCF28F0E9CF29F0EACF2AF0E1CF2BF077
:10003800E2CF2CF0D9CF2DF0DACF2EF0F3CF2FF07E
:10004800F4CF30F0F6CF31F0F7CF32F0F8CF33F00D
:10005800F5CF34F0F2A403D0F2947FEC0CF09EA01C
:1000680003D09E90C3EC0EF09EAA03D09E9AE1ECBA
:1000780008F09EB89DA802D087EC08F034C0F5FFC0
:1000880033C0F8FF32C0F7FF31C0F6FF30C0F4FFCD
:100098002FC0F3FF2EC0DAFF2DC0D9FF2CC0E2FF1E
:1000A8002BC0E1FF2AC0EAFF29C0E9FF28C0FBFFF7
:1000B80027C0FAFF26C0E0FF25C0E8FF24C0D8FF0C
:1000C8001000A3EF0CF029D2000120EE3DF0000152
:1000D800B351D9260001B451DA22DF5000017D6FF7
:1000E800000120EE3CF00001B351D9260001B451C3
:1000F800DA22DF5000017D19D8B415D0000120EEB6
:100108003CF00001B351D9260001B451DA220001B4
:1001180010EE3EF00001B351E1260001B451E22295
:10012800E750DF621BD0000120EE1DF00001B35143
:10013800D9260001B451DA22090EDF6E000120EE43
:100148003CF00001B351D9260001B451DA22DF5046
:1001580000017D6F00017D29C96E1200000120EEAB
:100168001DF00001B351D9260001B451DA22010E65
:10017800DF6EC5841200C5BC0ED0000120EE1DF054
:100188000001B351D9260001B451DA220A0EDF6EFC
:10019800C586C5801200000120EE1DF00001B35194
:1001A800D9260001B451DA22010EDF6E350E0001A6
:1001B800766F000E0001786F000E0001776F000E59
:1001C8003EEC0EF0C5841200FF0E00017D6FFF0E9D
:1001D8007E6F000120EE1AF00001B351D92600010C
:1001E800B451DA22DF5000017F6F806B00017D512E
:1001F80000017F2700017E5100018023000120EECD
:100208001BF00001B351D9260001B451DA22DF50A6
:100218000001816F0001815100017F198011D8B45C
:1002280032D0000120EE1DF00001B351D9260001A3
:10023800B451DA220B0EDF6E000120EE1BF0000134
:10024800B351D9260001B451DA22DF5000017D6F85
:1002580000017D51010DF3500001B325D96EF45012
:100268000001B421DA6EC9CFDFFF000120EE1BF0D8
:100278000001B351D9260001B451DA22DF2AC5881A
:10028800C59AC5801200000120EE1DF00001B3518F
:10029800D9260001B451DA220C0EDF6EC588C58A52
:1002A800C5801200000120EE1DF00001B351D926CF
:1002B8000001B451DA220A0EDF6EC586C58012002D
:1002C800000120EE1DF00001B351D9260001B45100
:1002D800DA22010EDF6E340E0001766F0001B4C021
:1002E80078F00001B3C077F0000120EE1AF00001A9
:1002F800B351D9260001B451DA22DF503EEC0EF09A
:10030800C5841200000120EE1DF00001B351D9266A
:100318000001B451DA22070EDF6E000120EE3CF036
:100328000001B351D9260001B451DA22DF50C96E59
:100338001200C5BACBD0C59C000E0001796F2E0EF5
:100348000001786F200E0001B32500017A6F000EBE
:100358000001B42100017B6F000120EE3AF000019A
:10036800B351D9260001B451DA22DF5093EC0DF0D5
:10037800000120EE3BF00001B351D9260001B45131
:10038800DA22DF5000017D6F000120EE3AF0000113
:10039800B351D9260001B451DA22DF5000017D5D46
:1003A800D8B034D0000120EE1DF00001B351D92699
:1003B8000001B451DA22070EDF6E000120EE3BF097
:1003C8000001B351D9260001B451DA22DF2A000115
:1003D80020EE3BF00001B351D9260001B451DA22D6
:1003E800DF5000017D6F7E6B1F0E00017D27000E20
:1003F8007E2300017D510001B325D96E00017E5195
:100408000001B421DA6EDF50C96E1200000120EE3F
:100418003BF00001B351D9260001B451DA220001A2
:1004280010EE3AF00001B351E1260001B451E22286
:10043800E750DF6224D0320E0001766F000E000113
:10044800786F000E0001776F000E3EEC0EF0000191
:1004580020EE1DF00001B351D9260001B451DA2273
:10046800010EDF6E000120EE3AF00001B351D926EB
:100478000001B451DA22000EDF6EC5841200330E7B
:100488000001766F200E0001B3250001776F000E82
:100498000001B4210001786F000120EE3AF000015C
:1004A800B351D9260001B451DA22DF503EEC0EF0E8
:1004B800000120EE1DF00001B351D9260001B4510E
:1004C800DA22010EDF6EC58CC5841200330E0001DE
:1004D800766F200E0001B3250001776F000E000132
:1004E800B4210001786F000120EE3AF00001B35109
:1004F800D9260001B451DA22DF503EEC0EF000019B
:1005080020EE1DF00001B351D9260001B451DA22C2
:10051800010EDF6EC58CC5841200000120EE1DF0AF
:100528000001B351D9260001B451DA22DF50010A83
:10053800D8B41200070AD8B4E5D6010AD8B4F9D657
:100548000F0AD8B4C1D5010AD8B415D6030AD8B44D
:100558003BD6010AD8B4A6D6070AD8A41200B0D64A
:10056800E00ED36E9B8C0101010E0001916F010119
:100578002E0E0001906F10EC0EF00101010E00012B
:10058800916F0101410E0001906F6BEC0BF00101BE
:10059800010E0001916F01012B0E0001906FDAEC42
:1005A8000EF078EC0AF0960E7DEC0EF0000E0001CD
:1005B800906F9B0E3FEC0DF0F1949F909F9A9F983F
:1005C8009F869A0E0001906F9E0EB8EC0AF09D86E9
:1005D800000E0001916F190E0001906F6C0E33EC44
:1005E8000BF015EC0FF09690969296949294929642
:1005F800948E949C000E7F6ECF0EB06EAD847E8676
:10060800AD98AC8EAD8A030E0101246F000E010176
:10061800256F0A0E0101266F000E0101276F0A0ED1
:100628000101286F010129690A0E0101006F0B0EF3
:100638000101016F0C0E0101026F0D0E0101036F24
:100648000E0E0101046F8EEC09F00101010E00018C
:10065800A96F01012D0E0001A86F0101010E000113
:10066800AB6F0101050E0001AA6F1A0E78EC0DF0B0
:100678000101406F010140BFC2D0ADD08D820101A0
:10068800010E0001916F0101220E0001906F01011E
:1006980000012DC192F00001936B0101405100014E
:1006A800946F0001956B000194BF95070101010E3D
:1006B8000001976F0101050E0001966F0EEC0FF017
:1006C8008D929DD005C12AF19AD00101010E000139
:1006D800AB6F0101050E0001AA6F01014051E5EC65
:1006E80004F08DD005C12AF164D0010E0101406FDC
:1006F8000A0E0101056F40C1AAF00101010E0001B7
:10070800AC6F0101050E0001AB6F9A0EE1EC09F028
:1007180076D0010E0101406F0B0E0101056F40C13B
:10072800AAF00101010E0001AC6F0101050E0001E4
:10073800AB6F9A0EE1EC09F062D0010E0101406F37
:100748000C0E0101056F40C1AAF00101010E000164
:10075800AC6F0101050E0001AB6F9A0EE1EC09F0D8
:100768004ED0010E0101406F0D0E0101056F40C111
:10077800AAF00101010E0001AC6F0101050E000194
:10078800AB6F9A0EE1EC09F03AD0010E0101406F0F
:100798000E0E0101056F40C1AAF00101010E000112
:1007A800AC6F0101050E0001AB6F9A0EE1EC09F088
:1007B80026D001012A510A0AD8B497D7010AD8B419
:1007C800A8D7070AD8B4B9D7010AD8B4CAD7030A30
:1007D800D8B4DBD714D001012D510A0AD8B44ED7AA
:1007E800220AD8B46FD7010AD8B46CD7070AD8B48C
:1007F80079D7010AD8B469D71B0AD8B466D70101DA
:10080800010E0001A96F01012D0E0001A86F010161
:10081800010E0001AB6F0101050E0001AA6F1A0E4F
:100828005DEC0DF00101406F010140BF0CD7BDD058
:100838000101010E0001AB6F01012B0E0001AA6F2F
:10084800010100012DC1ACF00001AD6B0101405167
:100858000001AE6F0001AF6B0001AEBFAF07010131
:10086800010E0001B16F0101050E0001B06F00EC2F
:100878000CF0E9D60101010E0001916F0101200E73
:100888000001906F010100012DC192F00001936BEE
:10089800010140510001946F0001956B000194BF64
:1008A80095070101010E0001976F0101050E000176
:1008B800966FAEEC0DF0C7D605C12AF164D0010ED3
:1008C8000101406F0A0E0101056F40C1AAF0010144
:1008D800010E0001AC6F0101050E0001AB6F9A0E0D
:1008E800E1EC09F0B0D6010E0101406F0B0E0101D9
:1008F800056F40C1AAF00101010E0001AC6F0101B2
:10090800050E0001AB6F9A0EE1EC09F09CD6010EC2
:100918000101406F0C0E0101056F40C1AAF00101F1
:10092800010E0001AC6F0101050E0001AB6F9A0EBC
:10093800E1EC09F088D6010E0101406F0D0E0101AE
:10094800056F40C1AAF00101010E0001AC6F010161
:10095800050E0001AB6F9A0EE1EC09F074D6010E9A
:100968000101406F0E0E0101056F40C1AAF001019F
:10097800010E0001AC6F0101050E0001AB6F9A0E6C
:10098800E1EC09F060D601012A510A0AD8B497D7D8
:10099800010AD8B4A8D7070AD8B4B9D7010AD8B475
:1009A800CAD7030AD8B4DBD74ED601012D510B0A9A
:1009B800D8B43ED7150AD8B45DD7010AD8B47CD7C5
:1009C80042D60001AD6F89860001AD51170AD8A43F
:1009D80060D020EE0FF03550D9263650DA22000EBE
:1009E800DF6E20EE0EF03550D9263650DA2200019F
:1009F800ADC0DFFF20EE10F03550D9263650DA2290
:100A0800DF500001AC6F0001AC510001906F000194
:100A1800916B000E0001936F0001926925EC08F0BC
:100A280000019051AAC0D9FFABC0DAFFDF6E000108
:100A380020EE01F00001AA51D9260001AB51DA22BB
:100A4800080EDF6E000120EE16F00001AA51D9262B
:100A58000001AB51DA22FF0EDF6E290E0001A66FEE
:100A68000001ABC0A8F00001AAC0A7F020EE0EF06C
:100A78003550D9263650DA22DF50F9EC0DF020EE49
:100A880010F03550D9263650DA22DF2A9D8889960B
:100A980012000001AD51070AD8A4120020EE0FF091
:100AA8003550D9263650DA22000EDF6E20EE0EF0D1
:100AB8003550D9263650DA220001ADC0DFFF20EECE
:100AC80010F03550D9263650DA22DF500001AC6FCD
:100AD8000001AC510001906F0001916B000E000104
:100AE800936F0001926925EC08F000019051AAC0AB
:100AF800D9FFABC0DAFFDF6E000120EE01F0000184
:100B0800AA51D9260001AB51DA22040EDF6E00018A
:100B180020EE06F00001AA51D9260001AB51DA22D5
:100B2800FF0EDF6E290E0001A66F0001ABC0A8F012
:100B38000001AAC0A7F020EE0EF03550D926365095
:100B4800DA22DF50F9EC0DF020EE10F03550D926FE
:100B58003650DA22DF2A9D8889961200000120EE9D
:100B680075F000019A51D92600019B51DA22DF5015
:100B78000001A36F0001A3511D0DF35000019A2538
:100B88000001A66FF45000019B210001A76F010E20
:100B9800A6C0D9FFA7C0DAFFDF626DD0000120EE42
:100BA80001F00001A651D9260001A751DA22DF5031
:100BB80000019C5DD8B002D0FD0E1200000120EEAD
:100BC80001F00001A651D9260001A751DA22DF5011
:100BD8000001A16F0001A1510001A46F0001A56BE4
:100BE8000001A0C091F000019FC090F0030E000129
:100BF800A6250001A16F000E0001A7210001A26F28
:100C0800A1C092F0A2C093F0A4C094F0A5C095F042
:100C18002FEC0CF0000120EE75F000019A51D92656
:100C280000019B51DA22000110EE75F000019A5183
:100C3800E12600019B51E222E7500001A16F00016B
:100C4800A129030BDF6E000120EE02F00001A6517E
:100C5800D9260001A751DA229DC0E1FF9EC0E2FF1C
:100C6800DFCFE7FFA6C0D9FFA7C0DAFF000EDF6E0F
:100C78000001A4511200FC0E1200000120EE75F0D4
:100C880000016A51D92600016B51DA22DF500001B8
:100C9800736F000173511D0DF35000016A250001A7
:100CA800766FF45000016B210001776F010E76C05A
:100CB800D9FF77C0DAFFDF626DD0000120EE01F0C6
:100CC80000017651D92600017751DA22DF50000160
:100CD8006C5DD8B002D0FD0E1200000120EE01F0CC
:100CE80000017651D92600017751DA22DF50000140
:100CF800716F000171510001746F0001756B000183
:100D080070C061F000016FC060F0030E000176252D
:100D18000001716F000E000177210001726F71C030
:100D280062F072C063F074C064F075C065F057EC8F
:100D38000CF0000120EE75F000016A51D92600017F
:100D48006B51DA22000110EE75F000016A51E126BC
:100D580000016B51E222E7500001716F0001712917
:100D6800030BDF6E000120EE02F000017651D92658
:100D780000017751DA226DC0E1FF6EC0E2FFDFCFDC
:100D8800E7FF76C0D9FF77C0DAFF000EDF6E0001FB
:100D980074511200FC0E120000019CC0A1F0000169
:100DA800A26B000120EE74F000019A51D9260001CF
:100DB8009B51DA22DF500001A36F0001A3511D0DE2
:100DC800F35000019A250001A46FF45000019B2103
:100DD8000001A56FA4C0D9FFA5C0DAFFDF50D8B4C1
:100DE80002D0FF0E1200000120EE01F00001A45114
:100DF800D9260001A551DA2200019CC0DFFF0001BD
:100E080020EE02F00001A451D9260001A551DA22F2
:100E180000019DC0DFFF030E0001A4250001906FB3
:100E2800000E0001A5210001916F00019FC093F001
:100E380000019EC092F0A1C094F0A2C095F02FECE2
:100E48000CF0000120EE74F000019A51D92600013F
:100E58009B51DA22000110EE74F000019A51E1264C
:100E680000019B51E222E7500001A06F0001A02978
:100E7800030BDF6EA4C0D9FFA5C0DAFF010EDF6E39
:100E8800010E120000016CC071F00001726B0001CC
:100E980020EE74F000016A51D92600016B51DA2264
:100EA800DF500001736F000173511D0DF3500001F5
:100EB8006A250001746FF45000016B210001756F01
:100EC80074C0D9FF75C0DAFFDF50D8B402D0FF0E66
:100ED8001200000120EE01F000017451D926000132
:100EE8007551DA2200016CC0DFFF000120EE02F02C
:100EF80000017451D92600017551DA2200016DC034
:100F0800DFFF030E000174250001606F000E000171
:100F180075210001616F00016FC063F000016EC0B0
:100F280062F071C064F072C065F057EC0CF000011B
:100F380020EE74F000016A51D92600016B51DA22C3
:100F4800000110EE74F000016A51E12600016B51B6
:100F5800E222E7500001706F00017029030BDF6E79
:100F680074C0D9FF75C0DAFF010EDF6E010E1200E2
:100F780020EE75F00B50D9260C50DA22DF50146E93
:100F880014501D0DF3500B24176EF4500C20186EDE
:100F9800010E17C0D9FF18C0DAFFDF6250D020EE6B
:100FA80001F01750D9261850DA22DF500D5CD8B05E
:100FB80002D0FD0E120020EE01F01750D92618506D
:100FC800DA22DF50126E1250156E166A11C002F046
:100FD80010C001F0030E1724126E000E1820136EB5
:100FE80012C003F013C004F015C005F016C006F0D7
:100FF800C3EC0CF020EE75F00B50D9260C50DA2219
:1010080010EE75F00B50E1260C50E222E750126EFC
:101018001228030BDF6E20EE02F01750D926185065
:10102800DA220EC0E1FF0FC0E2FFDFCFE7FF17C0F3
:10103800D9FF18C0DAFF000EDF6E15501200FC0E43
:101048001200000E0001956F00019151800AF36EA5
:10105800800EF35C000ED8B4905DD8B009D00001C2
:10106800906D0001911FD8B0912B010E0001956F72
:1010780000019351800AF36E800EF35C000ED8B421
:10108800925DD8B006D00001926D0001931FD8B0D0
:10109800932B000193519211D8B426D0010E000170
:1010A800946F06D00001D890923793370001942BA3
:1010B800000193AFF7D7000192510001905D000144
:1010C800935100019159D8A008D000019251000114
:1010D800905F000193510001915B0001D890933318
:1010E80092330001942FE7D700019551D8B406D068
:1010F8000001906D0001911FD8B0912B90C090F025
:1011080091C091F01200898420EE0EF03550D92656
:101118003650DA22030EDF6201D013D0000E1A6EA9
:10112800290E196E080E35241B6E000E36201C6E13
:1011380020EE0EF03550D9263650DA22DF5055EC25
:101148000EF0ADA238D020EE0FF03550D92636502B
:10115800DA22DF501E6E20EE0EF03550D9263650BA
:10116800DA22DF501E5CD8B01DD020EE0FF03550CB
:10117800D9263650DA22DF2A20EE0FF03550D9264C
:101188003650DA22DF501E6E1F6A070E1E26000E2A
:101198001F221E503524D96E1F503620DA6EDF50BC
:1011A800AE6E09D020EE0EF03550D9263650DA2230
:1011B800000EDF6E9D988994120089869EAA53D0EE
:1011C800898420EE06F03550D9263650DA22DF50D1
:1011D8001B6E1B50010DF3503524D96EF450362088
:1011E800DA6EB4EC0EF0DF6E20EE06F03550D9263C
:1011F8003650DA22DF2A20EE06F03550D92636504E
:10120800DA22050EDF6217D01F0E176E36C019F0EE
:1012180035C018F020EE06F03550D9263650DA22BF
:10122800DF5090EC0EF020EE06F03550D9263650FF
:10123800DA22000EDF6E0A0E1D6E0B0E1E6E0C0EED
:101248001F6E0D0E206E0E0E216EB4EC0EF0226E87
:101258001F0E176E000E196E220E186E010E90ECFE
:101268000EF01C6E8994899612000DC012F0136A54
:1012780020EE74F00B50D9260C50DA22DF50146E91
:1012880014501D0DF3500B24156EF4500C20166EDF
:1012980015C0D9FF16C0DAFFDF50D8B402D0FF0E50
:1012A800120020EE01F01550D9261650DA220DC092
:1012B800DFFF20EE02F01550D9261650DA220EC0B4
:1012C800DFFF030E1524016E000E1620026E10C0FB
:1012D80004F00FC003F012C005F013C006F0C3EC11
:1012E8000CF020EE74F00B50D9260C50DA2210EED8
:1012F80074F00B50E1260C50E222E750116E1128D1
:10130800030BDF6E15C0D9FF16C0DAFF010EDF6EC2
:10131800010E120021EC0DF000019551000194110D
:10132800D8B41200010E0001B56F0101010E0001D1
:10133800916F0101810E0001906FC7EC0DF000095B
:10134800D8B404D0000E0001B56F12000201020EDD
:101358000001916F0201760E0001906FC7EC0DF04D
:101368000009D8B404D0000E0001B56F12000201C4
:10137800020E0001916F0201000E0001906FC7EC90
:101388000DF00009D8B404D0000E0001B56F1200AA
:101398000301030E0001916F0301760E0001906FA7
:1013A800C7EC0DF00009D8B404D0000E0001B56FE9
:1013B80012000A0ED0EC0EF0B8D70001AD6FC7B41A
:1013C8001200000120EE1DF00001B351D9260001E2
:1013D800B451DA22010EDF621200000120EE3CF067
:1013E8000001B351D9260001B451DA220001ADC081
:1013F800DFFF000120EE1DF00001B351D9260001E6
:10140800B451DA22060EDF6E2E0E0001A66F00011F
:10141800ACC0A8F00001ABC0A7F00001AA5127ECAE
:101428000EF0000120EE3BF00001B351D926000177
:10143800B451DA22000EDF6E000120EE3AF000010E
:10144800B351D9260001B451DA220001AAC0DFFF46
:10145800C58012000001B56701D0120002EC0DF042
:101468000001635100016211D8A4120006EC0FF0CC
:101478000001615100016011D8B412000101010E90
:101488000001616F0101810E0001606FE0EC0DF059
:101498000009D8A412000201020E0001616F0201C6
:1014A800760E0001606FE0EC0DF00009D8A4120080
:1014B8000201020E0001616F0201000E0001606F5F
:1014C800E0EC0DF00009D8A412000301030E00019E
:1014D800616F0301760E0001606FE0EC0DF000090A
:1014E800D8B41AEC0FF01200000E0001B56F02011B
:1014F800020E0001916F0201760E0001906F9EECC2
:101508000BF00101010E0001916F0101810E000134
:10151800906F9EEC0BF00201020E0001916F020128
:10152800000E0001906F9EEC0BF00301030E00010A
:10153800916F0301760E0001906F9EEC0BF0040191
:10154800040E0001916F0401000E0001906F9EECE3
:101558000BF00301030E0001916F0301000E00015F
:10156800906F9EEC0BF012000001916F000120EECD
:101578001DF00001B351D9260001B451DA22010E41
:10158800DF6E000EC76E000EC66E000EC56E080E2A
:10159800C6129388938AC78EC79C770EC86E0001BF
:1015A80020EE3DF00001B351D9260001B451DA22F2
:1015B800000191C0DFFF000120EE3EF00001B351B1
:1015C800D9260001B451DA22000190C0DFFF0001E2
:1015D80020EE1AF00001B351D9260001B451DA22E5
:1015E8001A0EDF6EC68A1200EACF85F0E1CF86F0C8
:1015F800E2CF87F0D9CF88F0DACF89F0F3CF8AF03D
:10160800F4CF8BF0F6CF8CF0F7CF8DF0F8CF8EF0CB
:10161800F5CF8FF09EB69DA603D09E9667EC00F09E
:101628002EEC0AF08FC0F5FF8EC0F8FF8DC0F7FFD3
:101638008CC0F6FF8BC0F4FF8AC0F3FF89C0DAFFC5
:1016480088C0D9FF87C0E2FF86C0E1FF85C0EAFFF6
:1016580084C0E9FF83C0FBFF82C0FAFF11000001CC
:10166800956F000EAD6E000EAC6E000195B1AD88A1
:10167800000195A302D0AD8CAC8C000195B5AD8E60
:10168800000195A702D0AC8801D0AC8A000195B9B9
:10169800AD84000195BBAC86000195AD02D09D8A52
:1016A80001D09D9A000195AF02D09D8801D09D98E8
:1016B80090C0B0FF000191C092F092C093F0000179
:1016C800946B000193517F6EAD8AAC8E12000001BD
:1016D80091C0B4F0000190C0B3F0000120EE1AF000
:1016E8000001B351D9260001B451DA22000EDF6E91
:1016F800000120EE1CF00001B351D9260001B451BD
:10170800DA22000EDF6E000120EE1DF00001B35159
:10171800D9260001B451DA22010EDF6E000120EE55
:101728001FF00001B351D9260001B451DA22000E8E
:10173800DF6E1200000120EE74F000019051D926EE
:1017480000019151DA22000EDF6E000120EE75F0E3
:1017580000019051D92600019151DA22000EDF6E66
:10176800000E0001926F030E0001926501D0120075
:10177800000192511D0DF35000019025D96EF450CF
:1017880000019121DA6E000EDF6E0001922B030E2C
:1017980000019265EDD71200000193519211D8B45F
:1017A80026D0010E0001946F06D00001D890923720
:1017B80093370001942B000193AFF7D700019251A2
:1017C8000001905D0001935100019159D8A008D003
:1017D800000192510001905F000193510001915B5B
:1017E8000001D890933392330001942FE7D790C02B
:1017F80090F091C091F01200AAC0D9FFABC0DAFFF7
:10180800DE2A000EDD22AAC0D9FFABC0DAFF000134
:10181800DECF90F00001DDCF91F0000E0001936F54
:101828000A0E0001926FD0EC0BF000019051090AEA
:1018380000019111D8A41200140E0001A66F000136
:10184800ABC0A8F00001AAC0A7F0020E27EC0EF06A
:101858000001B26F1200000193C099F0000192C01C
:1018680098F0000191C097F0000190C096F010D058
:1018780098C0D9FF99C0DAFF96C0E1FF97C0E2FF90
:10188800DFCFE7FF0001984B992B0001964B972B70
:1018980000019407D8A0950700019429D8B4952988
:1018A800D8B41200E5D7000163C069F0000162C036
:1018B80068F0000161C067F0000160C066F010D0F8
:1018C80068C0D9FF69C0DAFF66C0E1FF67C0E2FF00
:1018D800DFCFE7FF0001684B692B0001664B672BE0
:1018E80000016407D8A0650700016429D8B46529F8
:1018F800D8B41200E5D7000E026E000E016EF5ECAA
:101908000EF0000E1A6E200E196E000E1C6E220EBE
:101918001B6E020E69EC0EF01E6E1F6A1EBE1F06BD
:101928001E50020A1F10D8A412000A0E176E000ECD
:10193800196E220E186E020EA2EC0EF0120004EEC2
:1019480000F0760EEE6AE806FDE103EE00F0EC0E1C
:10195800EE6AE806FDE102EE00F0EC0EEE6AE8063B
:10196800FDE101EE81F0760EEE6AE806FDE1000188
:10197800B56B376A000EF86E0001B4EF02F004C0D0
:101988000AF003C009F002C008F001C007F00ED049
:1019980009C0D9FF0AC0DAFF07C0E1FF08C0E2FFAB
:1019A800DFCFE7FF094A0A2A074A082A0506D8A00E
:1019B80006060528D8B40628D8B41200E9D7F2AC30
:1019C80007D0000E0001936F000E0001926F120005
:1019D800FEEC0EF00001915100019011D8B407D02F
:1019E800000E0001936F000E0001926F1200000EAE
:1019F8000001936F010E0001926F1200F2AC07D044
:101A0800000E0001636F000E0001626F120006EC09
:101A18000FF00001615100016011D8B407D0000E29
:101A28000001636F000E0001626F1200000E0001DA
:101A3800636F010E0001626F1200E3EC0CF000010D
:101A4800935100019211D8A40FD0FEEC0EF00001C2
:101A5800915100019011D8A407D0000E0001956F94
:101A6800010E0001946F1200000E0001956F000E28
:101A78000001946F12000001926F00019051F30B66
:101A88009A6E92C091F07F0E000191170001D890D4
:101A98009135CD6E000ECF6E000ECE6E9E90000179
:101AA80092AF02D09D8001D09D909ABE9A86CD803B
:101AB80012000001AC6F0201020E00019B6F0201CF
:101AC800760E00019A6FACC09CF00001A9C09EF090
:101AD8000001A8C09DF00001ABC0A0F00001AAC0A1
:101AE8009FF0B2EC05F012000001AC6F0101010E8D
:101AF80000019B6F0101810E00019A6FACC09CF040
:101B08000001A9C09EF00001A8C09DF00001ABC073
:101B1800A0F00001AAC09FF0B2EC05F0120000018D
:101B28007C6F0301030E00016B6F0301000E0001BF
:101B38006A6F7CC06CF0000179C06EF0000178C05B
:101B48006DF000017BC070F000017AC06FF041ECCD
:101B580006F01200000192511E0A9311D8B4120027
:101B6800000192511F0A9311D8A412000001945148
:101B780000019625D96E0001955100019721DA6E72
:101B8800000EDF6E1200000120EE75F0000190518A
:101B9800D92600019151DA22DF500001926F00012D
:101BA80092511D0DF35000019025D96EF45000019B
:101BB8009121DA6EDF501200000120EE75F000016D
:101BC8006051D92600016151DA22DF500001626FAD
:101BD800000162511D0DF35000016025D96EF450CB
:101BE80000016121DA6EDF5012000001A96F0401C3
:101BF800040E00019B6F0401000E00019A6FA9C03A
:101C08009CF0A6C09DF00001A8C09FF00001A7C0ED
:101C18009EF0D0EC06F01200000191C036F00001F1
:101C280090C035F020EE06F03550D9263650DA222D
:101C3800000EDF6E20EE11F03550D9263650DA222C
:101C4800000EDF6E12000001A96F0301030E0001F0
:101C58009B6F0301000E00019A6FA9C09CF0A6C0FB
:101C68009DF00001A8C09FF00001A7C09EF0D0EC35
:101C780006F012000001796F0101010E00016B6F7F
:101C88000101810E00016A6F79C06CF076C06DF0B9
:101C9800000178C06FF0000177C06EF046EC07F0E5
:101CA80012001D6E0401040E0C6E0401000E0B6E72
:101CB8001DC00DF01AC00FF019C00EF01CC011F0B5
:101CC8001BC010F0BCEC07F012001D6E0301030EE0
:101CD8000C6E0301000E0B6E1DC00DF01AC00FF044
:101CE80019C00EF01CC011F01BC010F0BCEC07F0BE
:101CF80012000001906F000190517F0BD56E000E0D
:101D0800D76E000ED66EF294000190AF02D0F28A20
:101D180001D0F29AD58E12001A6E0201020E0C6ED4
:101D28000201760E0B6E1AC00DF017C00EF019C026
:101D380010F018C00FF039EC09F012001A6E01010A
:101D4800010E0C6E0101810E0B6E1AC00DF017C04A
:101D58000EF019C010F018C00FF039EC09F012009D
:101D6800F20E3716ACAC03D03790ACB03780ACB4B9
:101D78003784ACB23786AFCF01F001501200ECECDB
:101D88000EF001C005F002C006F0000E026E000E53
:101D9800016EE3EC0EF012000001906FFA0E00F0F5
:101DA800E82EFDD70001902FF9D7120090C0D9FF77
:101DB80091C0DAFF000EDE6E000EDD6E120001C06B
:101DC80003F002C004F004C0CFFF03C0CEFF12002E
:101DD800CECF03F0CFCF04F003C001F004C002F06F
:101DE800120001C003F002C004F004C0D7FF03C012
:101DF800D6FF1200000EF2AE010E0001906F000136
:101E0800916B1200000EF2AE010E0001606F00012E
:101E1800616B1200000197C099F0000196C098F01C
:101E28001200D08EF28EF28CF28C1200D38E030048
:021E3800120096
:08FFF8008AF795FFF2F9FFF111
:00000001FF
