:040000005EEF00F0BF
:10000800FACFC0F0FBCFC1F0E9CFC2F0A5EF08F0FE
:10001800D8CF20F0E8CF21F0E0CF22F0FACF23F0BC
:10002800FBCF24F0E9CF25F0EACF26F0E1CF27F087
:10003800E2CF28F0D9CF29F0DACF2AF0F3CF2BF08E
:10004800F4CF2CF0F6CF2DF0F7CF2EF0F8CF2FF01D
:10005800F5CF30F09EA003D09E90F6EC0BF09EAA50
:1000680003D09E9AD0EC06F09EB8D3EC07F030C0CF
:10007800F5FF2FC0F8FF2EC0F7FF2DC0F6FF2CC0EC
:10008800F4FF2BC0F3FF2AC0DAFF29C0D9FF28C02C
:10009800E2FF27C0E1FF26C0EAFF25C0E9FF24C030
:1000A800FBFF23C0FAFF22C0E0FF21C0E8FF20C009
:1000B800D8FF100035EF0CF0000E0001BE6F000EE7
:1000C8000001B96F000E0001BD6F000E0001BC6F8A
:1000D800000E0001BA6FC6AC24D0C69C000120EE09
:1000E8000CF00001E651D9260001E751DA22050E8D
:1000F800DF6E010E0001BA6F000120EE0EF0000164
:10010800E651D9260001E751DA22DF2A000120EE64
:100118000DF00001E651D9260001E751DA22040E5C
:10012800DF6EC7A005D0C9CFBBF0010E0001BE6FBE
:100138000001BA6797D180D1C7A694D10001BE51FA
:100148006DEC06F0000120EE0CF00001E651D92616
:100158000001E751DA22080EDF6284D1000E0001A7
:10016800BE6F010E0001BC6F7DD1C7A82AD0000167
:1001780020EE0BF00001E651D9260001E751DA2202
:10018800DF2A0001BE51D8B44CD1C7BA04D0010E41
:100198000001BD6F46D1000120EE0EF00001E651CE
:1001A800D9260001E751DA22DF2A000120EE0DF0FE
:1001B8000001E651D9260001E751DA22060EDF6E6A
:1001C80030D10001BE51D8B44DD1000120EE0BF062
:1001D8000001E651D9260001E751DA22DF2AC7BA21
:1001E80019D0C7B40BD0000120EE0CF00001E65185
:1001F800D9260001E751DA22070E6DD0000120EE62
:100208000CF00001E651D9260001E751DA22080E68
:10021800DF6E00D1000120EE0EF00001E651D92674
:100228000001E751DA22DF2A000120EE0CF000017C
:10023800E651D9260001E751DA22050EDF6E0001EA
:1002480020EE0DF00001E651D9260001E751DA222F
:10025800060E41D0000120EE1AF00001E651D92621
:100268000001E751DA22DF504B6E000120EE19F051
:100278000001E651D9260001E751DA22DF504B5C34
:10028800D8B0CFD0000120EE1AF00001E651D926EF
:100298000001E751DA22DF504B6E4B50010D0F0E73
:1002A800F326000EF422F3500001E625D96EF4502F
:1002B8000001E721DA6EDF50C96E000120EE1AF066
:1002C8000001E651D9260001E751DA22DF2A010EA2
:1002D8000001B96FC7D0DF6EC5D0C7A858D00001DC
:1002E80020EE0BF00001E651D9260001E751DA2291
:1002F800DF2A0001BE51D8B446D0C7AA23D00001D6
:1003080020EE0AF00001E651D9260001E751DA2271
:10031800DF504B6E4B50010DF3500001E625D96EAE
:10032800F4500001E721DA6E0001BBC0DFFF0001D5
:1003380020EE0AF00001E651D9260001E751DA2241
:10034800DF2A21D0000120EE0EF00001E651D92667
:100358000001E751DA22DF2A000120EE0DF000014A
:10036800E651D9260001E751DA22060EDF6E0001B8
:1003780020EE0CF00001E651D9260001E751DA22FF
:10038800050EDF6E4ED0010E0001BD6F4AD0000190
:10039800BE51D8B467D0000120EE0BF00001E65141
:1003A800D9260001E751DA22DF2AC7AA23D00001A3
:1003B80020EE0AF00001E651D9260001E751DA22C1
:1003C800DF504B6E4B50010DF3500001E625D96EFE
:1003D800F4500001E721DA6E0001BBC0DFFF000125
:1003E80020EE0AF00001E651D9260001E751DA2291
:1003F800DF2A38D0C7A4CFD6000120EE0CF00001C8
:10040800E651D9260001E751DA22080EDF6E010E07
:100418000001BD6F010E0001BC6F000E0001BE6F30
:1004280021D0000120EE0CF00001E651D926000190
:10043800E751DA22050E4FD7000120EE0CF000013B
:10044800E651D9260001E751DA22DF50050AD8B46F
:1004580073D6030AD8B489D6010AD8B43ED70F0A8E
:10046800D8B4F8D60001BE6704D00001B951D8B499
:1004780002D0C6A8C688000120EE0AF00001E651A5
:10048800D9260001E751DA22080EDF6423D00001E3
:10049800BD6720D0000120EE0CF00001E651D926FE
:1004A8000001E751DA22050EDF6E000120EE0EF0A2
:1004B8000001E651D9260001E751DA22DF2A0001BE
:1004C80020EE0DF00001E651D9260001E751DA22AD
:1004D800070EDF6E0001BD51D8B438D0000120EE00
:1004E8000BF00001E651D9260001E751DA2200019C
:1004F80010EE0AF00001E651E1260001E751E22280
:10050800E7504B6E4B50010DF3500001E625E16EAC
:10051800F4500001E721E26EDFCFE7FF2D0E476EB2
:100528000001E7C049F00001E6C048F0000120EEF4
:100538000AF00001E651D9260001E751DA22DF501E
:100548006DEC0CF0000120EE0AF03ED0000120EE28
:100558000EF00001E651D9260001E751DA22DF50FA
:10056800D8B43AD0000120EE0EF00001E651D926A9
:100578000001E751DA22DF500001B66F000120EEDA
:100588000DF00001E651D9260001E751DA22DF50CB
:100598000001B76F000120EE0BF00001E651D926EB
:1005A8000001E751DA22DF500001B86F290E476ECB
:1005B8000001000E496E0001B60E486E030E6DEC88
:1005C8000CF0000120EE0EF00001E651D9260001E2
:1005D800E751DA22000EDF6E0001BC51D8B41200D8
:1005E8002A0E476E0001E7C049F00001E6C048F056
:1005F800000E6DEC0CF0000E0001BC6F1200400EF6
:100608000101AD6F000E0101AE6F820ED36E9B9C8F
:100618000101010E0001CF6F0101C20E0001CE6F72
:10062800C8EC0BF00101010E0001CF6F0101D50EDE
:100638000001CE6FE5EC08F00101010E0001CF6F5B
:100648000101BF0E0001CE6FAAEC0CF0D7EC09F047
:10065800930E48EC0CF0F50E97EC0BF0F1949F908C
:100668009F9A9F989F869A0E0CEC0CF09D86000E20
:100678000001CF6F190E0001CE6F6C0E64EC08F00C
:10068800DDEC0CF0010EB06E370EAF6EAC84B886A0
:10069800AC98AB8E9D98AC8A93929598959A959CB8
:1006A800948E949C8C9C8A928C988C9AA9EC09F0D4
:1006B8000101010E0101A36F0101C10E0101A26F29
:1006C8000101010E0101A56F0101B40E0101A46F22
:1006D8000A0EF6EC0AF00101D46F0101D4BFBAD0BA
:1006E800A8D00101010E0001CF6F0101B10E000178
:1006F800CE6F01010001C1C1D0F00001D16B010131
:10070800D4510001D26F0001D36B0001D2BFD307CF
:100718000101010E0001D56F0101B40E0001D46F73
:10072800D6EC0CF097D0B4C1B3F194D0B4C1B3F106
:100738006ED0020E0101D46F600E0101B46FE00E9D
:100748000101B56F0101010E0101A66F0101B40E8F
:100758000101A56F0101D4512AEC0AF07BD0020EE9
:100768000101D46F200E0101B46FE00E0101B56FD5
:100778000101010E0101A66F0101B40E0101A56F6F
:100788000101D4512AEC0AF065D0020E0101D46FA0
:10079800600E0101B46FA00E0101B56F0101010ED9
:1007A8000101A66F0101B40E0101A56F0101D45129
:1007B8002AEC0AF04FD0020E0101D46F400E01015D
:1007C800B46FC00E0101B56F0101010E0101A66FE2
:1007D8000101B40E0101A56F0101D4512AEC0AF000
:1007E80039D0020E0101D46F200E0101B46FA00EA2
:1007F8000101B56F0101010E0101A66F0101B40EDF
:100808000101A56F0101D4512AEC0AF023D001019E
:10081800B3510A0AD8B48DD7010AD8B4A0D7070AA9
:10082800D8B4B3D7010AD8B4C6D7030AD8B4D9D72D
:1008380011D00101C1510A0AD8B453D7220AD8B439
:1008480009D0010AD8B46FD7030AD8B403D0070A6D
:10085800D8B46CD70101010E0101A36F0101C10ECB
:100868000101A26F0101010E0101A56F0101B40E82
:100878000101A46F0A0ED7EC0AF00101D46F01013F
:10088800D4BF14D743D00101010E0101A66F0101A5
:10089800BF0E0101A56F0101C1C1A7F10101A86B3C
:1008A8000101D4510101A96F0101AA6B0101A9BF7E
:1008B800AA070101010E0101AC6F0101B40E01018B
:1008C800AB6F7AEC09F0F2D60101010E0001CF6F8F
:1008D8000101AF0E0001CE6F01010001C1C1D0F0CE
:1008E8000001D16B0101D4510001D26F0001D36B1B
:1008F8000001D2BFD3070101010E0001D56F01012C
:10090800B40E0001D46F4CEC0BF0D0D60101C151EC
:100918000B0AD8B4B8D7150AD8B4D6D7010AD8B4B0
:10092800D3D7C4D6000120EE35F00001D851D9261E
:100938000001D951DA22DF500001E16F0001E151D5
:100948000D0DF3500001D8250001E46FF4500001AB
:10095800D9210001E56F010EE4C0D9FFE5C0DAFF37
:10096800DF626DD0000120EE01F00001E451D926CC
:100978000001E551DA22DF500001DA5DD8B002D07B
:10098800FD0E1200000120EE01F00001E451D9260D
:100998000001E551DA22DF500001DF6F0001DF516D
:1009A8000001E26F0001E36B0001DEC0CFF000013F
:1009B800DDC0CEF0030E0001E4250001DF6F000E5C
:1009C8000001E5210001E06FDFC0D0F0E0C0D1F008
:1009D800E2C0D2F0E3C0D3F002EC0AF0000120EE4E
:1009E80035F00001D851D9260001D951DA22000189
:1009F80010EE35F00001D851E1260001D951E2226C
:100A0800E7500001DF6F0001DF29030BDF6E0001F3
:100A180020EE02F00001E451D9260001E551DA2266
:100A2800DBC0E1FFDCC0E2FFDFCFE7FFE4C0D9FFB6
:100A3800E5C0DAFF000EDF6E0001E2511200FC0E85
:100A480012000001DAC0DFF00001E06B000120EEC7
:100A580034F00001D851D9260001D951DA22DF50EB
:100A68000001E16F0001E1510D0DF3500001D8259F
:100A78000001E26FF4500001D9210001E36FE2C0E8
:100A8800D9FFE3C0DAFFDF50D8B402D0FF0E12005E
:100A9800000120EE01F00001E251D9260001E351E6
:100AA800DA220001DAC0DFFF000120EE02F00001C7
:100AB800E251D9260001E351DA220001DBC0DFFF51
:100AC800030E0001E2250001CE6F000E0001E321B4
:100AD8000001CF6F0001DDC0D1F00001DCC0D0F013
:100AE800DFC0D2F0E0C0D3F002EC0AF0000120EE43
:100AF80034F00001D851D9260001D951DA22000179
:100B080010EE34F00001D851E1260001D951E2225B
:100B1800E7500001DE6F0001DE29030BDF6EE2C043
:100B2800D9FFE3C0DAFF010EDF6E010E120020EEDE
:100B380035F00B50D9260C50DA22DF50146E1450C1
:100B48000D0DF3500B24176EF4500C20186E010E87
:100B580017C0D9FF18C0DAFFDF6250D020EE01F0CD
:100B68001750D9261850DA22DF500D5CD8B002D0C1
:100B7800FD0E120020EE01F01750D9261850DA2287
:100B8800DF50126E1250156E166A11C002F010C0B6
:100B980001F0030E1724126E000E1820136E12C0F7
:100BA80003F013C004F015C005F016C006F078EC89
:100BB8000AF020EE35F00B50D9260C50DA2210EE50
:100BC80035F00B50E1260C50E222E750126E122845
:100BD800030BDF6E20EE02F01750D9261850DA22E8
:100BE8000EC0E1FF0FC0E2FFDFCFE7FF17C0D9FF5C
:100BF80018C0DAFF000EDF6E15501200FC0E12004E
:100C080020EE35F03B50D9263C50DA22DF50446EB6
:100C180044500D0DF3503B24476EF4503C20486E71
:100C2800010E47C0D9FF48C0DAFFDF6250D020EE7E
:100C380001F04750D9264850DA22DF503D5CD8B041
:100C480002D0FD0E120020EE01F04750D926485080
:100C5800DA22DF50426E4250456E466A41C032F099
:100C680040C031F0030E4724426E000E4820436E08
:100C780042C033F043C034F045C035F046C036F0CA
:100C880098EC0AF020EE35F03B50D9263C50DA2299
:100C980010EE35F03B50E1263C50E222E750426E20
:100CA8004228030BDF6E20EE02F04750D926485049
:100CB800DA223EC0E1FF3FC0E2FFDFCFE7FF47C0D7
:100CC800D9FF48C0DAFF000EDF6E45501200FC0E57
:100CD8001200316E000120EE0BF00001E651D9261A
:100CE8000001E751DA22010EDF6E000120EE0AF062
:100CF8000001E651D9260001E751DA22000EDF6E25
:100D08003150D8B43DD0C7AA21D0000120EE0CF054
:100D18000001E651D9260001E751DA22050EDF6EFF
:100D2800000120EE0EF00001E651D9260001E7513E
:100D3800DA22DF2A000120EE0DF00001E651D92663
:100D48000001E751DA22050EDF6E1200C7A40CD0AD
:100D5800000120EE0CF00001E651D9260001E75110
:100D6800DA22080EDF6E1200000120EE0CF00001FE
:100D7800E651D9260001E751DA22070EDF6E12008C
:100D8800000120EE0CF00001E651D9260001E751E0
:100D9800DA22060EDF6E12009EAA49D020EE06F077
:100DA8004C50D9264D50DA22DF501B6E1B50010DD6
:100DB800F3504C24D96EF4504D20DA6E91EC0CF0BF
:100DC800DF6E20EE06F04C50D9264D50DA22DF2A8D
:100DD80020EE06F04C50D9264D50DA22060EDF627E
:100DE80017D01F0E176E4DC019F04CC018F020EE2A
:100DF80006F04C50D9264D50DA22DF505BEC0CF04F
:100E080020EE06F04C50D9264D50DA22000EDF6E47
:100E18001F0E176E4DC019F04CC018F020EE06F0EA
:100E28004C50D9264D50DA22DF505BEC0CF04FA61F
:100E38001200AB98AB881E0E176E000E196E000ECE
:100E4800186E000E5BEC0CF012000DC012F0136A65
:100E580020EE34F00B50D9260C50DA22DF50146EF5
:100E680014500D0DF3500B24156EF4500C20166E13
:100E780015C0D9FF16C0DAFFDF50D8B402D0FF0E74
:100E8800120020EE01F01550D9261650DA220DC0B6
:100E9800DFFF20EE02F01550D9261650DA220EC0D8
:100EA800DFFF030E1524016E000E1620026E10C01F
:100EB80004F00FC003F012C005F013C006F078EC80
:100EC8000AF020EE34F00B50D9260C50DA2210EE3E
:100ED80034F00B50E1260C50E222E750116E112835
:100EE800030BDF6E15C0D9FF16C0DAFF010EDF6EE7
:100EF800010E12003DC042F0436A20EE34F03B5030
:100F0800D9263C50DA22DF50446E44500D0DF35080
:100F18003B24456EF4503C20466E45C0D9FF46C080
:100F2800DAFFDF50D8B402D0FF0E120020EE01F035
:100F38004550D9264650DA223DC0DFFF20EE02F0A8
:100F48004550D9264650DA223EC0DFFF030E45241D
:100F5800316E000E4620326E40C034F03FC033F090
:100F680042C035F043C036F098EC0AF020EE34F079
:100F78003B50D9263C50DA2210EE34F03B50E126A3
:100F88003C50E222E750416E4128030BDF6E45C01A
:100F9800D9FF46C0DAFF010EDF6E010E1200000E07
:100FA8001A6E2D0E196E080E4C241B6E000E4D2065
:100FB8001C6E20EE0EF04C50D9264D50DA22DF5030
:100FC80021EC0CF0ACA2120020EE0FF04C50D92608
:100FD8004D50DA22DF501E6E20EE0EF04C50D9260E
:100FE8004D50DA22DF501E5CD8B01DD020EE0FF035
:100FF8004C50D9264D50DA22DF2A20EE0FF04C5003
:10100800D9264D50DA22DF501E6E1F6A070E1E26A3
:10101800000E1F221E504C24D96E1F504D20DA6E30
:10102800DF50AD6E120020EE0EF04C50D9264D5018
:10103800DA22000EDF6E9D981200000E0001BF6FCD
:10104800000E0001BE6F000E326E000E316EC5EC50
:101058000CF00001000E0001B76F0001BC0E00018A
:10106800B66F0001000E0001B96F0001BE0E00014D
:10107800B86F020EB0EC0BF00001BA6F0001BB6B49
:101088000001BABFBB070001BA51020ABB11D8A4BC
:101098000BD00A0E476E0001000E496E0001BE0E0D
:1010A800486E020E6DEC0CF00A0E476E0001000E41
:1010B800496E0001BE0E486E020E6DEC0CF0120077
:1010C8000001D36F000EAC6E000EAB6E0001D3B101
:1010D800AC880001D3A302D0AC8CAB8C0001D3B593
:1010E800AC8E0001D3A702D0AB8801D0AB8A000137
:1010F800D3B9AC849E980001D3BBAB860001D3ADB5
:1011080002D09D8A01D09D9A9E9A0001D3AF02D049
:101118009D8801D09D98CEC0AFFF0001CFC0D0F010
:10112800D0C0D1F00001D26B0001D151B06EAC8AB1
:10113800AB8E949C948EACA81200ACBE1200948C1A
:101148001200EACFC3F0E1CFC4F0E2CFC5F0D9CFA7
:10115800C6F0DACFC7F0F3CFC8F0F4CFC9F0F6CFB6
:10116800CAF0F7CFCBF0F8CFCCF0F5CFCDF09EB6E4
:101178009DA603D09E9660EC00F0F2A403D0F294F2
:1011880021EC08F051EC0AF0CDC0F5FFCCC0F8FF17
:10119800CBC0F7FFCAC0F6FFC9C0F4FFC8C0F3FF51
:1011A800C7C0DAFFC6C0D9FFC5C0E2FFC4C0E1FFAF
:1011B800C3C0EAFFC2C0E9FFC1C0FBFFC0C0FAFF5D
:1011C80011000001CFC0E7F00001CEC0E6F0000139
:1011D80020EE0AF00001E651D9260001E751DA2293
:1011E800000EDF6E000120EE0BF00001E651D9265B
:1011F8000001E751DA22000EDF6E000120EE0CF04C
:101208000001E651D9260001E751DA22050EDF6E0A
:10121800000120EE0EF00001E651D9260001E75149
:10122800DA22000EDF6E1200000120EE34F0000119
:10123800CE51D9260001CF51DA22000EDF6E00010F
:1012480020EE35F00001CE51D9260001CF51DA2227
:10125800000EDF6E000E0001D06F030E0001D06596
:1012680001D012000001D0510D0DF3500001CE2520
:10127800D96EF4500001CF21DA6E000EDF6E000146
:10128800D02B030E0001D065EDD712000001D1511B
:10129800D011D8B426D0010E0001D26F06D00001BB
:1012A800D890D037D1370001D22B0001D1AFF7D772
:1012B8000001D0510001CE5D0001D1510001CF598C
:1012C800D8A008D00001D0510001CE5F0001D15153
:1012D8000001CF5B0001D890D133D0330001D22F69
:1012E800E7D7CEC0CEF0CFC0CFF01200A5C1D9FF4E
:1012F800A6C1DAFFDE2A000EDD22A5C1D9FFA6C1EC
:10130800DAFF0001DECFCEF00001DDCFCFF0000E16
:101318000001D16F0A0E0001D06F4AEC09F00001FC
:10132800CE51090A0001CF11D8A41200140E0101F0
:10133800A26F0101A6C1A4F10101A5C1A3F1020E8A
:1013480065EC0BF00001E56F120015EC0BF00001E5
:10135800D3510001D211D8B41200010E4E6E010112
:10136800010E0001CF6F01016C0E0001CE6F7EEC03
:101378000BF00009D8B403D0000E4E6E1200000125
:10138800000E0001CF6F0001800E0001CE6F7EECD1
:101398000BF00009D8B403D0000E4E6E12000A0EEE
:1013A800A0EC0CF0DCD7000E4E6E0001000E000120
:1013B800CF6F0001800E0001CE6F18EC09F001011B
:1013C800010E0001CF6F01016C0E0001CE6F18EC09
:1013D80009F00101010E0001CF6F0101360E000175
:1013E800CE6F18EC09F00101010E0001CF6F010169
:1013F800000E0001CE6F18EC09F012000001D1C0F8
:10140800D7F00001D0C0D6F00001CFC0D5F0000160
:10141800CEC0D4F010D0D6C0D9FFD7C0DAFFD4C020
:10142800E1FFD5C0E2FFDFCFE7FF0001D64BD72BA6
:101438000001D44BD52B0001D207D8A0D307000157
:10144800D229D8B4D329D8B41200E5D70001E56F62
:1014580020EE0FF04C50D9264D50DA22000EDF6EE8
:1014680020EE0EF04C50D9264D50DA220001E5C08E
:10147800DFFF2D0E0101A26F0101A6C1A4F1010138
:10148800A5C1A3F120EE0EF04C50D9264D50DA221A
:10149800DF5033EC0BF09D8812004E6601D012002D
:1014A800DFEC0BF034503310D8A41200E3EC0CF04E
:1014B80032503110D8B412000101010E326E010110
:1014C8006C0E316E7FEC0CF00009D8A412000001FC
:1014D800000E326E0001800E316E7FEC0CF00009B8
:1014E800D8B4E9EC0CF0120004C00AF003C009F00B
:1014F80002C008F001C007F00ED009C0D9FF0AC029
:10150800DAFF07C0E1FF08C0E2FFDFCFE7FF094AC3
:101518000A2A074A082A0506D8A006060528D8B4C4
:101528000628D8B41200E9D734C03AF033C039F0ED
:1015380032C038F031C037F00ED039C0D9FF3AC0C8
:10154800DAFF37C0E1FF38C0E2FFDFCFE7FF394AF3
:101558003A2A374A382A3506D8A036063528D8B464
:101568003628D8B41200E9D7F2AC07D0000E000133
:10157800D16F000E0001D06F1200CEEC0CF000010C
:10158800CF510001CE11D8B407D0000E0001D16FA1
:10159800000E0001D06F1200000E0001D16F010E85
:1015A8000001D06F12000101A66F0001000E0001BA
:1015B800D96F0001800E0001D86FA6C1DAF00101D1
:1015C8000001A3C1DCF001010001A2C1DBF00101AF
:1015D8000001A5C1DEF001010001A4C1DDF096EC17
:1015E80004F012000101A66F0101010E0001D96F7C
:1015F80001016C0E0001D86FA6C1DAF001010001EB
:10160800A3C1DCF001010001A2C1DBF0010100016E
:10161800A5C1DEF001010001A4C1DDF096EC04F0E3
:101628001200B8EC0AF00001D1510001D011D8A481
:101638000FD0CEEC0CF00001CF510001CE11D8A490
:1016480007D0000E0001D36F010E0001D26F120007
:10165800000E0001D36F000E0001D26F12000001CE
:10166800E46F0101010E0001D96F0101360E00017E
:10167800D86FE4C0DAF0A2C1DBF001010001A4C117
:10168800DDF001010001A3C1DCF025EC05F012003A
:101698000001D0511E0AD111D8B412000001D05156
:1016A8001F0AD111D8A412000001D2510001D4257B
:1016B800D96E0001D3510001D521DA6E000EDF6E1C
:1016C80012000001E46F0101010E0001D96F010150
:1016D800000E0001D86FE4C0DAF0A2C1DBF001010E
:1016E8000001A4C1DDF001010001A3C1DCF025EC7B
:1016F80005F01200000120EE35F00001CE51D92688
:101708000001CF51DA22DF500001D06F0001D05123
:101718000D0DF3500001CE25D96EF4500001CF21F4
:10172800DA6EDF5012000001CE6F0001CE517E0B41
:10173800CD6E0001CEAD02D0CD8E01D0CD9E000E73
:10174800CF6E000ECE6E9E900001CEAF02D09D806F
:1017580001D09D90CD801200496E0101010E3C6EB2
:101768000101000E3B6E49C03DF00001B7C03FF0DB
:101778000001B6C03EF00001B9C041F00001B8C098
:1017880040F004EC06F012000001CFC04DF000015B
:10179800CEC04CF020EE06F04C50D9264D50DA223F
:1017A800000EDF6E20EE11F04C50D9264D50DA2293
:1017B800000EDF6E1200F2AC05D0000E346E000E83
:1017C800336E1200E3EC0CF032503110D8B405D06F
:1017D800000E346E000E336E1200000E346E010ED1
:1017E800336E1200BCEC0CF001C01BF002C01CF000
:1017F8000B0E176E000E196E000E186E000E5BECC5
:101808000CF0000E026E000E016EB3EC0CF012002C
:101818000001CE6F000EC76E000EC66E000EC56EBC
:101828000E0EC61294869488C78EC79CCEC0C8FF79
:1018380094869488C580C68A12001D6E0101010E27
:101848000C6E0101360E0B6E1DC00DF01AC00FF0A4
:1018580019C00EF01CC011F01BC010F09BEC05F075
:10186800120001EE00F0A20EEE6AE806FDE100EEBD
:1018780080F0360EEE6AE806FDE14F6A4E6A000E09
:10188800F86E000103EF03F00001CE6F0001CE51A6
:101898007F0BD56E000ED76E000ED66EF294000147
:1018A800CEAF02D0F28A01D0F29AD58E12001A6E0B
:1018B8000001000E0C6E0001800E0B6E1AC00DF0B8
:1018C80017C00EF019C010F018C00FF029EC07F07F
:1018D80012004A6E0101010E3C6E01016C0E3B6E56
:1018E8004AC03DF047C03EF049C040F048C03FF014
:1018F8007EEC07F0120020EE35F03150D926325038
:10190800DA22DF50336E33500D0DF3503124D96E87
:10191800F4503220DA6EDF501200F20E4F16ABACE4
:1019280003D04F90ABB04F80ABB44F84ABB24F866F
:10193800AECF01F0015012000001CE6FFA0E00F098
:10194800E82EFDD70001CE2FF9D71200CEC0D9FF5F
:10195800CFC0DAFF000EDE6E000EDD6E120001C091
:1019680003F002C004F004C0CFFF03C0CEFF120092
:10197800CECF03F0CFCF04F003C001F004C002F0D3
:10198800120031C033F032C034F034C0D7FF33C056
:10199800D6FF1200000EF2AE010E0001CE6F00015C
:1019A800CF6B12000001D5C0D7F00001D4C0D6F02B
:1019B8001200D08EF28EF28CF28EF28C1200000E93
:1019C800F2AE010E316E326A1200D38E030012009D
:067FF80080F4C5FFFFF15B
:00000001FF
