:0400000060EF00F0BD
:10000800FACF88F0FBCF89F0E9CF8AF0A1EF09F0A9
:10001800D8CF33F0E8CF34F0E0CF35F0FACF36F070
:10002800FBCF37F0E9CF38F0EACF39F0E1CF3AF03B
:10003800E2CF3BF0D9CF3CF0DACF3DF0F3CF3EF042
:10004800F4CF3FF0F6CF40F0F7CF41F0F8CF42F0D1
:10005800F5CF43F09EA003D09E90E5EC0DF09EAA4C
:1000680003D09E9A52EC09F09EB89DA802D0A7EC46
:1000780008F043C0F5FF42C0F8FF41C0F7FF40C099
:10008800F6FF3FC0F4FF3EC0F3FF3DC0DAFF3CC0BF
:10009800D9FF3BC0E2FF3AC0E1FF39C0EAFF38C0F0
:1000A800E9FF37C0FBFF36C0FAFF35C0E0FF34C0B8
:1000B800E8FF33C0D8FF100054EF0DF0000E000128
:1000C800876F000E0001826F000E0001866F000E20
:1000D8000001856F000E0001836FC6AC24D0C69C5A
:1000E800000120EE1CF00001BA51D9260001BB51D5
:1000F800DA22050EDF6E010E0001836F000120EE8B
:100108001EF00001BA51D9260001BB51DA22DF2ABC
:10011800000120EE1DF00001BA51D9260001BB51A3
:10012800DA22040EDF6EC7A005D0C9CF84F0010E15
:100138000001876F000183679FD188D1C7A69CD132
:100148000001875142EC08F0000120EE1CF000018C
:10015800BA51D9260001BB51DA22080EDF628CD1D0
:10016800000E0001876F010E0001856F85D1C7A8B9
:100178002AD0000120EE1BF00001BA51D926000157
:10018800BB51DA22DF2A00018751D8B454D1C7BA4B
:1001980004D0010E0001866F4ED1000120EE1EF042
:1001A8000001BA51D9260001BB51DA22DF2A000129
:1001B80020EE1DF00001BA51D9260001BB51DA2208
:1001C800060EDF6E38D100018751D8B455D1000131
:1001D80020EE1BF00001BA51D9260001BB51DA22EA
:1001E800DF2AC7BA19D0C7B40BD0000120EE1CF023
:1001F8000001BA51D9260001BB51DA22070E71D08D
:10020800000120EE1CF00001BA51D9260001BB51B3
:10021800DA22080EDF6E08D1000120EE1EF0000180
:10022800BA51D9260001BB51DA22DF2A000120EE9B
:100238001CF00001BA51D9260001BB51DA22050E83
:10024800DF6E000120EE1DF00001BA51D926000131
:10025800BB51DA22060E45D0000120EE3AF000012B
:10026800BA51D9260001BB51DA22DF5000017D6F57
:10027800000120EE39F00001BA51D9260001BB5126
:10028800DA22DF5000017D5DD8B0D5D0000120EE24
:100298003AF00001BA51D9260001BB51DA22DF50E9
:1002A80000017D6F00017D51010D1F0EF326000E28
:1002B800F422F3500001BA25D96EF4500001BB2195
:1002C800DA6EDF50C96E000120EE3AF00001BA5133
:1002D800D9260001BB51DA22DF2A010E0001826F04
:1002E800CBD0DF6EC9D0C7A85AD0000120EE1BF0D2
:1002F8000001BA51D9260001BB51DA22DF2A0001D8
:100308008751D8B448D0C7AA25D0000120EE1AF0EA
:100318000001BA51D9260001BB51DA22DF50000191
:100328007D6F00017D51010DF3500001BA25D96E92
:10033800F4500001BB21DA6E000184C0DFFF000128
:1003480020EE1AF00001BA51D9260001BB51DA2279
:10035800DF2A21D0000120EE1EF00001BA51D92673
:100368000001BB51DA22DF2A000120EE1DF0000156
:10037800BA51D9260001BB51DA22060EDF6E000100
:1003880020EE1CF00001BA51D9260001BB51DA2237
:10039800050EDF6E50D0010E0001866F4CD00001B3
:1003A8008751D8B469D0000120EE1BF00001BA5182
:1003B800D9260001BB51DA22DF2AC7AA25D00001BD
:1003C80020EE1AF00001BA51D9260001BB51DA22F9
:1003D800DF5000017D6F00017D51010DF3500001D8
:1003E800BA25D96EF4500001BB21DA6E000184C031
:1003F800DFFF000120EE1AF00001BA51D9260001F2
:10040800BB51DA22DF2A38D0C7A4C7D6000120EEB4
:100418001CF00001BA51D9260001BB51DA22080E9E
:10042800DF6E010E0001866F010E0001856F000E60
:100438000001876F21D0000120EE1CF00001BA51A5
:10044800D9260001BB51DA22050E4BD7000120EE58
:100458001CF00001BA51D9260001BB51DA22DF5045
:10046800050AD8B46BD6030AD8B481D6010AD8B421
:100478003AD70F0AD8B4F0D60001876704D0000134
:100488008251D8B402D0C6A8C688000120EE1AF05E
:100498000001BA51D9260001BB51DA22180EDF64D7
:1004A80023D00001866720D0000120EE1CF0000157
:1004B800BA51D9260001BB51DA22050EDF6E0001C0
:1004C80020EE1EF00001BA51D9260001BB51DA22F4
:1004D800DF2A000120EE1DF00001BA51D9260001E3
:1004E800BB51DA22070EDF6E00018651D8B43FD027
:1004F800000120EE1BF00001BA51D9260001BB51C2
:10050800DA22000110EE1AF00001BA51E1260001CA
:10051800BB51E222E75000017D6F00017D51010DC2
:10052800F3500001BA25E16EF4500001BB21E26EE0
:10053800DFCFE7FF280E0001766F0001BBC078F01F
:100548000001BAC077F0000120EE1AF00001BA519C
:10055800D9260001BB51DA22DF5000017D6F00016E
:100568007D29CEEC0DF0000120EE1AF041D00001FB
:1005780020EE1EF00001BA51D9260001BB51DA2243
:10058800DF50D8B43DD0000120EE1EF00001BA5172
:10059800D9260001BB51DA22DF5000017E6F00012D
:1005A80020EE1DF00001BA51D9260001BB51DA2214
:1005B800DF5000017F6F000120EE1BF00001BA51EF
:1005C800D9260001BB51DA22DF500001806F290EC5
:1005D8000001766F0001000E0001786F00017E0EA9
:1005E8000001776F030ECEEC0DF0000120EE1EF037
:1005F8000001BA51D9260001BB51DA22000EDF6E84
:1006080000018551D8B41200000E0001796F2A0E3E
:100618000001786F1F0E0001BA2500017A6F000EE5
:100628000001BB2100017B6F000120EE39F00001C1
:10063800BA51D9260001BB51DA22DF5039EC0DF04E
:100648000001816F000181AFFDD0000120EE1FF095
:100658000001BA51D9260001BB51DA22000EDF6E23
:10066800000120EE20F00001BA51D9260001BB514B
:10067800DA22000EDF6E000120EE21F00001BA51EF
:10068800D9260001BB51DA22000EDF6E000120EEF0
:1006980022F00001BA51D9260001BB51DA22000E1E
:1006A800DF6E000120EE23F00001BA51D9260001C7
:1006B800BB51DA22000EDF6E000120EE24F00001AB
:1006C800BA51D9260001BB51DA22000EDF6E0001B3
:1006D80020EE25F00001BA51D9260001BB51DA22DB
:1006E800000EDF6E000120EE26F00001BA51D92677
:1006F8000001BB51DA22000EDF6E000120EE27F068
:100708000001BA51D9260001BB51DA22000EDF6E72
:10071800000120EE28F00001BA51D9260001BB5192
:10072800DA22000EDF6E000120EE29F00001BA5136
:10073800D9260001BB51DA22000EDF6E000120EE3F
:100748002AF00001BA51D9260001BB51DA22000E65
:10075800DF6E000120EE2BF00001BA51D92600010E
:10076800BB51DA22000EDF6E000120EE2CF00001F2
:10077800BA51D9260001BB51DA22000EDF6E000102
:1007880020EE2DF00001BA51D9260001BB51DA2222
:10079800000EDF6E000120EE2EF00001BA51D926BE
:1007A8000001BB51DA22000EDF6E000120EE2FF0AF
:1007B8000001BA51D9260001BB51DA22000EDF6EC2
:1007C800000120EE30F00001BA51D9260001BB51DA
:1007D800DA22000EDF6E000120EE31F00001BA517E
:1007E800D9260001BB51DA22000EDF6E000120EE8F
:1007F80032F00001BA51D9260001BB51DA22000EAD
:10080800DF6E000120EE33F00001BA51D926000155
:10081800BB51DA22000EDF6E000120EE34F0000139
:10082800BA51D9260001BB51DA22000EDF6E000151
:1008380020EE35F00001BA51D9260001BB51DA2269
:10084800000EDF6E89B602D0010E01D0000E000145
:100858007D6F00017D477D477D47895000017D19E7
:10086800F70B7D19896E1F0E0001BA250001606F14
:10087800000E0001BB210001616F170E6BEC06F042
:10088800000E0001856F1200E00ED36E9B8C0101F3
:10089800010E0001976F0101220E0001966FAAEC6C
:1008A8000BF00101010E0001976F01015B0E0001C1
:1008B800966F85EC0AF00101010E0001976F0101A6
:1008C8001E0E0001966F72EC0EF04FEC0AF0960EB9
:1008D80023EC0EF0000E0001966F9B0ECAEC0CF094
:1008E800F1949F909F9A9F989F869E0EFBEC0DF027
:1008F8009D86000E0001976F190E0001966F6C0E11
:10090800E0EC09F0ADEC0EF092949296948E949CE3
:10091800000E7F6ECF0EB06EAD847E86AD98AC8E25
:10092800AD8AEAEC0AF00101010E0001AF6F010186
:10093800210E0001AE6F0101010E0001B16F01012E
:10094800000E0001B06F1A0E03EC0DF00101206FCC
:10095800010120BF56D049D00101010E0001976F57
:1009680001011C0E0001966F0101000121C198F0E0
:100978000001996B0101205100019A6F00019B6BE6
:1009880000019ABF9B070101010E00019D6F010143
:10099800000E00019C6FA6EC0EF033D089B402D093
:1009A800010E01D0000E0001B96F0001B947B94727
:1009B80089500001B919FB0BB919896E0101205141
:1009C8000001B06F0001B16B0001B0BFB1070101B8
:1009D800010E0001B36F0101000E0001B26F29EC96
:1009E8000CF00FD000C11BF10CD0010121510A0AF3
:1009F800D8B4B2D7220AD8B4D1D7010AD8B4F2D71A
:100A0800030A0101010E0001AF6F0101210E00016F
:100A1800AE6F0101010E0001B16F0101000E00016E
:100A2800B06F1A0EE8EC0CF00101206F010120BF35
:100A380078D722D00101010E0001B16F01011E0E0D
:100A48000001B06F0101000121C1B2F00001B36BD8
:100A5800010120510001B46F0001B56B0001B4BF62
:100A6800B5070101010E0001B76F0101000E000179
:100A7800B66F7BEC0BF055D7010121510B0AD8B4A6
:100A8800D9D7150AD8B44DD7010AD8B44AD73F0ADE
:100A980048D7000120EE75F00001A051D9260001C9
:100AA800A151DA22DF500001A96F0001A9511D0DE3
:100AB800F3500001A0250001AC6FF4500001A12102
:100AC8000001AD6F010EACC0D9FFADC0DAFFDF6227
:100AD8006DD0000120EE01F00001AC51D9260001D3
:100AE800AD51DA22DF500001A25DD8B002D0FD0E70
:100AF8001200000120EE01F00001AC51D9260001DE
:100B0800AD51DA22DF500001A76F0001A7510001A3
:100B1800AA6F0001AB6B0001A6C097F00001A5C049
:100B280096F0030E0001AC250001A76F000E00012E
:100B3800AD210001A86FA7C098F0A8C099F0AAC07D
:100B48009AF0ABC09BF0D9EC0BF0000120EE75F0E9
:100B58000001A051D9260001A151DA22000110EEAE
:100B680075F00001A051E1260001A151E222E750F1
:100B78000001A76F0001A729030BDF6E000120EE1B
:100B880002F00001AC51D9260001AD51DA22A3C010
:100B9800E1FFA4C0E2FFDFCFE7FFACC0D9FFADC0E3
:100BA800DAFF000EDF6E0001AA511200FC0E1200DF
:100BB800000120EE75F000016A51D92600016B5141
:100BC800DA22DF500001736F000173511D0DF350DD
:100BD80000016A250001766FF45000016B210001C5
:100BE800776F010E76C0D9FF77C0DAFFDF626DD06C
:100BF800000120EE01F000017651D926000177515D
:100C0800DA22DF5000016C5DD8B002D0FD0E120070
:100C1800000120EE01F000017651D926000177513C
:100C2800DA22DF500001716F000171510001746F09
:100C38000001756B000170C061F000016FC060F0C9
:100C4800030E000176250001716F000E0001772167
:100C58000001726F71C062F072C063F074C064F01A
:100C680075C065F001EC0CF0000120EE75F0000194
:100C78006A51D92600016B51DA22000110EE75F095
:100C880000016A51E12600016B51E222E7500001A0
:100C9800716F00017129030BDF6E000120EE02F075
:100CA80000017651D92600017751DA226DC0E1FFA3
:100CB8006EC0E2FFDFCFE7FF76C0D9FF77C0DAFF6B
:100CC800000EDF6E000174511200FC0E12000001CC
:100CD800646F000120EE39F00001BA51D9260001F5
:100CE800BB51DA22000EDF6E3ED0000120EE39F053
:100CF8000001BA51D9260001BB51DA22DF500001A8
:100D0800626F00016251010DF35000016025D96E38
:100D1800F45000016121DA6E000110EE39F0000193
:100D2800BA51E1260001BB51E222E7500001636F8E
:100D380000016351010D1F0EF326000EF422F3503B
:100D48000001BA25E16EF4500001BB21E26EDFCF4D
:100D5800E7FF000120EE39F00001BA51D926000161
:100D6800BB51DA22DF2A000120EE39F00001BA5126
:100D7800D9260001BB51DA22DF500001626F000161
:100D880064510001625DD8A0B0D7000120EE39F0AF
:100D98000001BA51D9260001BB51DA22000164C012
:100DA800DFFF000120EE3AF00001BA51D926000118
:100DB800BB51DA22010EDF6E000120EE1FF00001A8
:100DC800BA51D9260001BB51DA22DF50C96EC68854
:100DD80012000001A2C0A7F00001A86B000120EEDC
:100DE80074F00001A051D9260001A151DA22DF5088
:100DF8000001A96F0001A9511D0DF3500001A025A4
:100E08000001AA6FF4500001A1210001AB6FAAC034
:100E1800D9FFABC0DAFFDF50D8B402D0FF0E120002
:100E2800000120EE01F00001AA51D9260001AB51C2
:100E3800DA220001A2C0DFFF000120EE02F000016B
:100E4800AA51D9260001AB51DA220001A3C0DFFF65
:100E5800030E0001AA250001966F000E0001AB21C8
:100E68000001976F0001A5C099F00001A4C098F097
:100E7800A7C09AF0A8C09BF0D9EC0BF0000120EEB7
:100E880074F00001A051D9260001A151DA22000115
:100E980010EE74F00001A051E1260001A151E222F8
:100EA800E7500001A66F0001A629030BDF6EAAC058
:100EB800D9FFABC0DAFF010EDF6E010E1200000190
:100EC8006CC071F00001726B000120EE74F000013B
:100ED8006A51D92600016B51DA22DF500001736F85
:100EE800000173511D0DF35000016A250001746F54
:100EF800F45000016B210001756F74C0D9FF75C0F3
:100F0800DAFFDF50D8B402D0FF0E1200000120EE45
:100F180001F000017451D92600017551DA2200014F
:100F28006CC0DFFF000120EE02F000017451D926E9
:100F380000017551DA2200016DC0DFFF030E0001C8
:100F480074250001606F000E000175210001616FBA
:100F580000016FC063F000016EC062F071C064F000
:100F680072C065F001EC0CF0000120EE74F0000195
:100F78006A51D92600016B51DA22000110EE74F093
:100F880000016A51E12600016B51E222E75000019D
:100F9800706F00017029030BDF6E74C0D9FF75C034
:100FA800DAFF010EDF6E010E120020EE75F00B5015
:100FB800D9260C50DA22DF50146E14501D0DF35050
:100FC8000B24176EF4500C20186E010E17C0D9FFB1
:100FD80018C0DAFFDF6250D020EE01F01750D92692
:100FE8001850DA22DF500D5CD8B002D0FD0E120086
:100FF80020EE01F01750D9261850DA22DF50126E71
:101008001250156E166A11C002F010C001F0030EDE
:101018001724126E000E1820136E12C003F013C0AE
:1010280004F015C005F016C006F04EEC0CF020EEEA
:1010380075F00B50D9260C50DA2210EE75F00B50D3
:10104800E1260C50E222E750126E1228030BDF6EE5
:1010580020EE02F01750D9261850DA220EC0E1FF10
:101068000FC0E2FFDFCFE7FF17C0D9FF18C0DAFFD4
:10107800000EDF6E15501200FC0E12000001606FAA
:10108800000120EE1BF00001BA51D9260001BB5126
:10109800DA22010EDF6E000120EE1AF00001BA51CB
:1010A800D9260001BB51DA22000EDF6E0001605123
:1010B800D8B43DD0C7AA21D0000120EE1CF0000111
:1010C800BA51D9260001BB51DA22050EDF6E0001A4
:1010D80020EE1EF00001BA51D9260001BB51DA22D8
:1010E800DF2A000120EE1DF00001BA51D9260001C7
:1010F800BB51DA22050EDF6E1200C7A40CD0000126
:1011080020EE1CF00001BA51D9260001BB51DA22A9
:10111800080EDF6E1200000120EE1CF00001BA512B
:10112800D9260001BB51DA22070EDF6E120000013A
:1011380020EE1CF00001BA51D9260001BB51DA2279
:10114800060EDF6E1200000E1A6E280E196E1C0EA7
:1011580044241B6E000E45201C6E20EE36F04450D1
:10116800D9264550DA22DF500FEC0EF0ADA212005E
:1011780020EE37F04450D9264550DA22DF2A20EEF7
:1011880037F04450D9264550DA22DF501E6E20EE43
:1011980036F04450D9264550DA22DF501E5CD8B0CC
:1011A80016D020EE37F04450D9264550DA22DF50C9
:1011B8001E6E1F6A1B0E1E26000E1F221E50442480
:1011C800D96E1F504520DA6EDF50AE6E120020EE49
:1011D80036F04450D9264550DA22000EDF6E20EE54
:1011E80037F04450D9264550DA22000EDF6E9D981C
:1011F80012000DC012F0136A20EE74F00B50D926BD
:101208000C50DA22DF50146E14501D0DF3500B24CD
:10121800156EF4500C20166E15C0D9FF16C0DAFFF3
:10122800DF50D8B402D0FF0E120020EE01F01550A6
:10123800D9261650DA220DC0DFFF20EE02F0155035
:10124800D9261650DA220EC0DFFF030E1524016ED0
:10125800000E1620026E10C004F00FC003F012C07A
:1012680005F013C006F04EEC0CF020EE74F00B50B5
:10127800D9260C50DA2210EE74F00B50E1260C50EF
:10128800E222E750116E1128030BDF6E15C0D9FF5B
:1012980016C0DAFF010EDF6E010E12009EAA3FD0C3
:1012A80020EE38F04450D9264550DA22DF501B6E24
:1012B8001B50010D1C0EF324D96E000EF420DA6EBB
:1012C80059EC0EF0DF6E20EE38F04450D926455028
:1012D800DA22DF501B6E1B50010D1C0EF324D96E51
:1012E800000EF420DA6EFF0EDF6212D02A0E176E9F
:1012F800000E196E1C0E186E170E36EC0EF020EE4E
:1013080038F04450D9264550DA22000EDF6E07D057
:1013180020EE38F04450D9264550DA22DF2A46A676
:101328001200AC98AC881E0E176E000E196E000ED7
:10133800186E000E48EC0EF01200EACF8BF0E1CFE9
:101348008CF0E2CF8DF0D9CF8EF0DACF8FF0F3CFDB
:1013580090F0F4CF91F0F6CF92F0F7CF93F0F8CF6A
:1013680094F0F5CF95F09EA603D09E9662EC00F01F
:10137800F2A403D0F29418EC0AF04BEC0BF095C0F1
:10138800F5FF94C0F8FF93C0F7FF92C0F6FF91C035
:10139800F4FF90C0F3FF8FC0DAFF8EC0D9FF8DC075
:1013A800E2FF8CC0E1FF8BC0EAFF8AC0E9FF89C079
:1013B800FBFF88C0FAFF110000019B6F000EAD6EA5
:1013C800000EAC6E00019BB1AD8800019BA302D05A
:1013D800AD8CAC8C00019BB5AD8E00019BA702D0F3
:1013E800AC8801D0AC8A00019BB9AD8400019BBBDD
:1013F800AC8600019BAD02D09D8A01D09D9A000168
:101408009BAF02D09D8801D09D9896C0B0FF000187
:1014180097C098F098C099F000019A6B0001995113
:101428007F6EAD8AAC8E1200000E0001616F000E57
:101438000001606F8DEC0EF00001000E0001796F65
:1014480000017F0E0001786F0001000E00017B6F24
:101458000001810E00017A6F020E1EEC0DF00001F2
:101468007D6F00017E6B00017DBF7E0700017D510D
:10147800020A7E11D8A412000A0E0001766F00013C
:10148800000E0001786F0001810E0001776F020ED7
:10149800CEEC0DF01200000E0001BC6F0201020E2E
:1014A8000001976F0201760E0001966FB8EC0AF002
:1014B8000201020E0001976F0201000E0001966FF3
:1014C800B8EC0AF00301030E0001976F0301760ED2
:1014D8000001966FB8EC0AF00301030E0001976F44
:1014E8000301000E0001966FB8EC0AF00401040E27
:1014F8000001976F0401000E0001966FB8EC0AF026
:101508001200000197C0BBF0000196C0BAF00001BC
:1015180020EE1AF00001BA51D9260001BB51DA2297
:10152800000EDF6E000120EE1BF00001BA51D92633
:101538000001BB51DA22000EDF6E000120EE1CF024
:101548000001BA51D9260001BB51DA22050EDF6E1F
:10155800000120EE1EF00001BA51D9260001BB514E
:10156800DA22000EDF6E1200000120EE74F0000196
:101578009651D92600019751DA22000EDF6E00013C
:1015880020EE75F000019651D92600019751DA2214
:10159800000EDF6E000E0001986F030E00019865C3
:1015A80001D01200000198511D0DF350000196253D
:1015B800D96EF45000019721DA6E000EDF6E00013B
:1015C800982B030E00019865EDD71200ACEC0CF0D7
:1015D80000019B5100019A11D8B41200010E0001BC
:1015E800BC6F0201020E0001976F0201000E00019C
:1015F800966F6EEC0DF00009D8B404D0000E00010F
:10160800BC6F12000201020E0001976F0201760EF4
:101618000001966F6EEC0DF00009D8B404D0000EEE
:101628000001BC6F12000A0E68EC0EF0DAD7000158
:1016380099519811D8B426D0010E00019A6F06D09E
:101648000001D8909837993700019A2B000199AF7B
:10165800F7D7000198510001965D000199510001EA
:101668009759D8A008D0000198510001965F000151
:1016780099510001975B0001D89099339833000184
:101688009A2FE7D796C096F097C097F012000001FE
:10169800BC6701D012008DEC0CF000016351000111
:1016A8006211D8A412009EEC0EF0000161510001F5
:1016B8006011D8B412000201020E0001616F02012C
:1016C800000E0001606F87EC0DF00009D8A412002D
:1016D8000201020E0001616F0201760E0001606FC7
:1016E80087EC0DF00009D8B4B1EC0EF01200B0C0D0
:1016F800D9FFB1C0DAFFDE2A000EDD22B0C0D9FF63
:10170800B1C0DAFF0001DECF96F00001DDCF97F01F
:10171800000E0001996F0A0E0001986F1BEC0BF088
:1017280000019651090A00019711D8A41200140E5D
:101738000001AC6F0001B1C0AEF00001B0C0ADF067
:10174800020EB7EC0DF00001B86F1200000197C04F
:1017580045F0000196C044F020EE1AF04450D92616
:101768004550DA22000EDF6E20EE1BF04450D926D9
:101778004550DA22000EDF6E20EE36F04450D926AE
:101788004550DA22000EDF6E20EE37F04450D9269D
:101798004550DA22000EDF6E20EE38F04450D9268C
:1017A8004550DA22000EDF6E1200000199C09FF04A
:1017B800000198C09EF0000197C09DF0000196C0FE
:1017C8009CF010D09EC0D9FF9FC0DAFF9CC0E1FFFB
:1017D8009DC0E2FFDFCFE7FF00019E4B9F2B00017A
:1017E8009C4B9D2B00019A07D8A09B0700019A29C2
:1017F800D8B49B29D8B41200E5D7000163C069F0BA
:10180800000162C068F0000161C067F0000160C0BB
:1018180066F010D068C0D9FF69C0DAFF66C0E1FF82
:1018280067C0E2FFDFCFE7FF0001684B692B0001CB
:10183800664B672B00016407D8A06507000164297F
:10184800D8B46529D8B41200E5D720EE37F0445053
:10185800D9264550DA22000EDF6E20EE36F04450CD
:10186800D9264550DA220001B0C0DFFF280E00015A
:10187800AC6F0001B3C0AEF00001B2C0ADF020EE15
:1018880036F04450D9264550DA22DF50A0EC0DF04E
:101898009D88120004C00AF003C009F002C008F0D5
:1018A80001C007F00ED009C0D9FF0AC0DAFF07C08F
:1018B800E1FF08C0E2FFDFCFE7FF094A0A2A074A2B
:1018C800082A0506D8A006060528D8B40628D8B4DC
:1018D8001200E9D7F2AC07D0000E0001996F000E94
:1018E8000001986F120096EC0EF00001975100016C
:1018F8009611D8B407D0000E0001996F000E0001B0
:10190800986F1200000E0001996F010E0001986F88
:101918001200F2AC07D0000E0001636F000E000148
:10192800626F12009EEC0EF000016151000160111F
:10193800D8B407D0000E0001636F000E0001626F7B
:101948001200000E0001636F010E0001626F1200A9
:101958006EEC0CF00001995100019811D8A40FD039
:1019680096EC0EF00001975100019611D8A407D00B
:10197800000E00019B6F010E00019A6F1200000E0D
:1019880000019B6F000E00019A6F12000001986F12
:1019980000019651F30B9A6E98C097F07F0E0001E4
:1019A80097170001D8909735CD6E000ECF6E000EB8
:1019B800CE6E9E90000198AF02D09D8001D09D9080
:1019C8009ABE9A86CD8012000001B26F0201020E03
:1019D8000001A16F0201760E0001A06FB2C0A2F053
:1019E8000001AFC0A4F00001AEC0A3F00001B1C077
:1019F800A6F00001B0C0A5F04DEC05F01200000102
:101A0800B26F0201020E0001A16F0201000E000177
:101A1800A06FB2C0A2F00001AFC0A4F00001AEC038
:101A2800A3F00001B1C0A6F00001B0C0A5F04DECD4
:101A380005F0120000017C6F0301030E00016B6FBB
:101A48000301000E00016A6F7CC06CF0000179C0D0
:101A58006EF0000178C06DF000017BC070F00001ED
:101A68007AC06FF0DCEC05F0120000017C6F040115
:101A7800040E00016B6F0401000E00016A6F7CC048
:101A88006CF0000179C06EF0000178C06DF00001C3
:101A98007BC070F000017AC06FF0DCEC05F012003A
:101AA80004EE00F0760EEE6AE806FDE103EE00F0C3
:101AB800EC0EEE6AE806FDE102EE00F0EC0EEE6ACE
:101AC800E806FDE10001BC6B466A000EF86E0001F5
:101AD80048EF04F0000120EE75F000019651D92678
:101AE80000019751DA22DF500001986F00019851E8
:101AF8001D0DF35000019625D96EF4500001972171
:101B0800DA6EDF501200000120EE75F0000160511E
:101B1800D92600016151DA22DF500001626F00010D
:101B280062511D0DF35000016025D96EF45000017B
:101B38006121DA6EDF5012000001AF6F0301030E5E
:101B48000001A16F0301760E0001A06FAFC0A2F0E3
:101B5800ACC0A3F00001AEC0A5F00001ADC0A4F078
:101B6800EDEC06F012000001AF6F0301030E000157
:101B7800A16F0301000E0001A06FAFC0A2F0ACC0BE
:101B8800A3F00001AEC0A5F00001ADC0A4F0EDECDB
:101B980006F012000001796F0201020E00016B6F5E
:101BA8000201000E00016A6F79C06CF076C06DF01A
:101BB800000178C06FF0000177C06EF063EC07F0A9
:101BC800120084EC0EF001C01BF002C01CF00B0EDA
:101BD800176E000E196E000E186E000E48EC0EF00F
:101BE800000E026E000E016E7BEC0EF0120000017A
:101BF800966F9388938A96C0C8FF000EC76E000E32
:101C0800C66E000EC56E0E0EC612C78E8188818AFA
:101C1800C580C68A12001D6E0301030E0C6E0301F7
:101C2800760E0B6E1DC00DF01AC00FF019C00EF025
:101C38001CC011F01BC010F0D9EC07F01200000115
:101C4800966F000196517F0BD56E000ED76E000E71
:101C5800D66EF294000196AF02D0F28A01D0F29AC1
:101C6800D58E12001A6E0401040E0C6E0401000ECB
:101C78000B6E1AC00DF017C00EF019C010F018C086
:101C88000FF0FDEC08F012001A6E0201020E0C6E45
:101C98000201760E0B6E1AC00DF017C00EF0106A16
:101CA80018C00FF0FDEC08F01200F20E4616ACACAE
:101CB80003D04690ACB04680ACB44684ACB24686FD
:101CC800AFCF01F0015012000001966FFA0E00F03C
:101CD800E82EFDD70001962FF9D7120096C0D9FF3C
:101CE80097C0DAFF000EDE6E000EDD6E120001C036
:101CF80003F002C004F004C0CFFF03C0CEFF1200FF
:101D0800CECF03F0CFCF04F003C001F004C002F03F
:101D1800120060C062F061C063F063C0D7FF62C0A8
:101D2800D6FF1200000EF2AE010E0001966F000100
:101D3800976B1200000EF2AE010E0001606F0001F9
:101D4800616B120000019DC09FF000019CC09EF0D5
:101D58001200D08EF28EF28C1200D38E0300120085
:08FFF8008AF795FFF2F9FFF111
:00000001FF
