:0400000060EF00F0BD
:10000800FACFBBF0FBCFBCF0E9CFBDF0CDEF07F0E6
:10001800D8CF20F0E8CF21F0E0CF22F0FACF23F0BC
:10002800FBCF24F0E9CF25F0EACF26F0E1CF27F087
:10003800E2CF28F0D9CF29F0DACF2AF0F3CF2BF08E
:10004800F4CF2CF0F6CF2DF0F7CF2EF0F8CF2FF01D
:10005800F5CF30F09EA003D09E90F6EC0BF09EAA50
:1000680003D09E9AAEEC0AF09EB89DA802D07FEC11
:1000780007F030C0F5FF2FC0F8FF2EC0F7FF2DC0E6
:10008800F6FF2CC0F4FF2BC0F3FF2AC0DAFF29C00B
:10009800D9FF28C0E2FF27C0E1FF26C0EAFF25C03C
:1000A800E9FF24C0FBFF23C0FAFF22C0E0FF21C004
:1000B800E8FF20C0D8FF100032EF0BF0000E00015F
:1000C800BA6F000E0001B56F000E0001B96F000E87
:1000D8000001B86F000E0001B66FC6AC24D0C69CF4
:1000E800000120EE0DF00001CC51D9260001CD51C0
:1000F800DA22040EDF6E010E0001B66F000120EE59
:100108000FF00001CC51D9260001CD51DA22DF2AA7
:10011800000120EE0EF00001CC51D9260001CD518E
:10012800DA22150EDF6EC7A005D0C9CFB7F0010ED1
:100138000001BA6F0001B6679FD188D1C7A69CD1CC
:100148000001BA51C5EC06F0000120EE0DF00001E7
:10015800CC51D9260001CD51DA22090EDF628CD1AB
:10016800000E0001BA6F010E0001B86F85D1C7A853
:100178002AD0000120EE0CF00001CC51D926000154
:10018800CD51DA22DF2A0001BA51D8B454D1C7BA06
:1001980004D0010E0001B96F4ED1000120EE0FF01E
:1001A8000001CC51D9260001CD51DA22DF2A000105
:1001B80020EE0EF00001CC51D9260001CD51DA22F3
:1001C800170EDF6E38D10001BA51D8B455D10001ED
:1001D80020EE0CF00001CC51D9260001CD51DA22D5
:1001E800DF2AC7BA19D0C7B40BD0000120EE0DF032
:1001F8000001CC51D9260001CD51DA22060E71D06A
:10020800000120EE0DF00001CC51D9260001CD519E
:10021800DA22090EDF6E08D1000120EE0FF000018E
:10022800CC51D9260001CD51DA22DF2A000120EE77
:100238000DF00001CC51D9260001CD51DA22040E6F
:10024800DF6E000120EE0EF00001CC51D92600012E
:10025800CD51DA22170E45D0000120EE1BF0000127
:10026800CC51D9260001CD51DA22DF500001B16FFF
:10027800000120EE1AF00001CC51D9260001CD5121
:10028800DA22DF500001B15DD8B0D5D0000120EEF0
:100298001BF00001CC51D9260001CD51DA22DF50E4
:1002A8000001B16F0001B151010D100EF326000ECF
:1002B800F422F3500001CC25D96EF4500001CD2171
:1002C800DA6EDF50C96E000120EE1BF00001CC5140
:1002D800D9260001CD51DA22DF2A010E0001B56FBF
:1002E800CBD0DF6EC9D0C7A85AD0000120EE0CF0E1
:1002F8000001CC51D9260001CD51DA22DF2A0001B4
:10030800BA51D8B448D0C7AA25D0000120EE0AF0C7
:100318000001CC51D9260001CD51DA22DF5000016D
:10032800B16F0001B151010DF3500001CC25D96E18
:10033800F4500001CD21DA6E0001B7C0DFFF0001E3
:1003480020EE0AF00001CC51D9260001CD51DA2265
:10035800DF2A21D0000120EE0FF00001CC51D92670
:100368000001CD51DA22DF2A000120EE0EF0000153
:10037800CC51D9260001CD51DA22170EDF6E0001CB
:1003880020EE0DF00001CC51D9260001CD51DA2222
:10039800040EDF6E50D0010E0001B96F4CD0000181
:1003A800BA51D8B469D0000120EE0CF00001CC514C
:1003B800D9260001CD51DA22DF2AC7AA25D00001AB
:1003C80020EE0AF00001CC51D9260001CD51DA22E5
:1003D800DF500001B16F0001B151010DF350000170
:1003E800CC25D96EF4500001CD21DA6E0001B7C0DA
:1003F800DFFF000120EE0AF00001CC51D9260001F0
:10040800CD51DA22DF2A38D0C7A4C7D6000120EEA2
:100418000DF00001CC51D9260001CD51DA22090E88
:10042800DF6E010E0001B96F010E0001B86F000EFA
:100438000001BA6F21D0000120EE0DF00001CC516F
:10044800D9260001CD51DA22040E4BD7000120EE47
:100458000DF00001CC51D9260001CD51DA22DF5030
:10046800040AD8B46BD6010AD8B481D6030AD8B422
:100478003AD70F0AD8B4F0D60001BA6704D0000101
:10048800B551D8B402D0C6A8C688000120EE0AF03B
:100498000001CC51D9260001CD51DA22080EDF64C3
:1004A80023D00001B96720D0000120EE0DF0000133
:1004B800CC51D9260001CD51DA22040EDF6E00019D
:1004C80020EE0FF00001CC51D9260001CD51DA22DF
:1004D800DF2A000120EE0EF00001CC51D9260001E0
:1004E800CD51DA22180EDF6E0001B951D8B43FD0D1
:1004F800000120EE0CF00001CC51D9260001CD51AD
:10050800DA22000110EE0AF00001CC51E1260001C8
:10051800CD51E222E7500001B16F0001B151010D48
:10052800F3500001CC25E16EF4500001CD21E26EBC
:10053800DFCFE7FF170E0001AD6F0001CDC0AFF0B0
:100548000001CCC0AEF0000120EE0AF00001CC5151
:10055800D9260001CD51DA22DF500001B16F000128
:10056800B1298FEC0BF0000120EE0AF041D0000118
:1005780020EE0FF00001CC51D9260001CD51DA222E
:10058800130EDF643DD0000120EE0FF00001CC51C6
:10059800D9260001CD51DA22DF500001B26F0001E7
:1005A80020EE0EF00001CC51D9260001CD51DA22FF
:1005B800DF500001B36F000120EE0CF00001CC51B8
:1005C800D9260001CD51DA22DF500001B46F150E93
:1005D8000001AD6F0001000E0001AF6F0001B20E07
:1005E8000001AE6F030E8FEC0BF0000120EE0FF050
:1005F8000001CC51D9260001CD51DA22000EDF6E60
:100608000001B851D8B41200160E0001AD6F0001F8
:10061800CDC0AFF00001CCC0AEF0000E8FEC0BF0F7
:10062800000E0001B86F1200000E0201016F000EEB
:100638000201006FE00ED36E9B8C0201020E0001D6
:10064800CA6F0201150E0001C96F78EC0BF00201A8
:10065800020E0001CA6F0201240E0001C96F7AEC74
:1006680008F00201020E0001CA6F0201120E000119
:10067800C96F3DEC0CF044EC08F0A6EC0BF0960EBC
:10068800E3EC0BF0000E0001C96F9B0E90EC0AF032
:10069800F1949F909F9A9F989F869E0EBBEC0BF0BB
:1006A8009D86000E0001CA6F190E0001C96F6C0EFD
:1006B8000CEC08F07AEC0CF096908D908D80948E6E
:1006C800949C000E7F6ECF0EB06EAD847E86AD9882
:1006D800AC8EAD8ADFEC08F00201020E0101B96FA1
:1006E8000201140E0101B86F0201020E0101BB6F75
:1006F8000201030E0101BA6F0A0EE5EC0AF00201CD
:10070800236F020123BF48D03BD00201020E010132
:10071800A36F02010E0E0101A26F0201010114C2B2
:10072800A4F10101A56B020123510101A66F01018A
:10073800A76B0101A6BFA7070201020E0101A96F5D
:100748000201030E0101A86F34EC0CF025D003C29E
:1007580002F222D0020E0201236F0A0E0201106F6C
:100768000B0E0201116F0201020E0001CA6F020195
:10077800100E0001C96F02012351EEEC04F00CD0F9
:1007880002011451140AD8B4C0D7010AD8B4DFD76B
:10079800030AD8B4DFD7010A0201020E0101B96FBA
:1007A8000201140E0101B86F0201020E0101BB6FB4
:1007B8000201030E0101BA6F0A0ECAEC0AF0020127
:1007C800236F020123BF86D767D00201020E010101
:1007D800BB6F0201120E0101BA6F0201010114C2BE
:1007E800BCF10101BD6B020123510101BE6F010182
:1007F800BF6B0101BEBFBF070201020E0101C16F3D
:100808000201030E0101C06F70EC09F063D7000EFE
:100818000101B96F200E0101B86F0201020E01013A
:10082800BB6F0201030E0101BA6F02012351CAEC2A
:100838000AF0180E0101B76F0201020E0101B96F2B
:100848000201030E0101B86F020123514AEC0BF0BB
:1008580041D7000E0101B96F210E0101B86F0201E5
:10086800020E0101BB6F0201030E0101BA6F020102
:100878002351CAEC0AF0000E0101BB6F010E010101
:10088800BA6F0201020E0101BD6F0201030E0101E0
:10089800BC6FEFEC09F01ED7020114511E0AD8B440
:1008A80094D7010AD8B416D73F0AD8B4B0D7010AEA
:1008B800D8B4CFD70FD7010120EE35F00101AC51E4
:1008C800D9260101AD51DA22DF500101B36F0101D0
:1008D800B3510D0DF3500101AC250101B66FF45071
:1008E8000101AD210101B76F010EB6C1D9FFB7C132
:1008F800DAFFDF626DD0010120EE01F00101B6518F
:10090800D9260101B751DA22DF500101AE5DD8B016
:1009180002D0FD0E1200010120EE01F00101B651D6
:10092800D9260101B751DA22DF500001C96F000151
:10093800C9510101B46F0101B56B0101B2C1A3F145
:100948000101B1C1A2F1030E0101B6250001C96F71
:10095800000E0101B7210001CA6FC9C0A4F1CAC0C5
:10096800A5F1B4C1A6F1B5C1A7F19FEC09F0010149
:1009780020EE35F00101AC51D9260101AD51DA2242
:10098800010110EE35F00101AC51E1260101AD5134
:10099800E222E7500001C96F0001C929030BDF6E8D
:1009A800010120EE02F00101B651D9260101B7512B
:1009B800DA22AFC1E1FFB0C1E2FFDFCFE7FFB6C186
:1009C800D9FFB7C1DAFF000EDF6E0101B451120082
:1009D800FC0E12000001CB6F000120EE1AF000019E
:1009E800CC51D9260001CD51DA22000EDF6E3ED05F
:1009F800000120EE1AF00001CC51D9260001CD519A
:100A0800DA22DF500101A26F0101A251010DF3505A
:100A18000001C925D96EF4500001CA21DA6E00011F
:100A280010EE1AF00001CC51E1260001CD51E2226E
:100A3800E7500101A36F0101A351010D100EF32628
:100A4800000EF422F3500001CC25E16EF4500001B1
:100A5800CD21E26EDFCFE7FF000120EE1AF00001A2
:100A6800CC51D9260001CD51DA22DF2A000120EE2F
:100A78001AF00001CC51D9260001CD51DA22DF50FD
:100A88000101A26F0001CB510101A25DD8A0B0D72E
:100A9800000120EE1AF00001CC51D9260001CD51F9
:100AA800DA220001CBC0DFFF000120EE1BF00001BD
:100AB800CC51D9260001CD51DA22010EDF6E00019A
:100AC80020EE10F00001CC51D9260001CD51DA22D8
:100AD800DF50C96EC68812000101AEC1B2F1010132
:100AE800B36B010120EE34F00101AC51D9260101AC
:100AF800AD51DA22DF500101B46F0101B4510D0D7F
:100B0800F3500101AC250101B56FF4500101AD218D
:100B18000101B66FB5C1D9FFB6C1DAFFDF50D8B44D
:100B280002D0FF0E1200010120EE01F00101B551C3
:100B3800D9260101B651DA220101AEC1DFFF010158
:100B480020EE02F00101B551D9260101B651DA2291
:100B58000101AFC1DFFF030E0101B5250101A26F3D
:100B6800000E0101B6210101A36F0101B1C1A5F178
:100B78000101B0C1A4F1B2C1A6F1B3C1A7F19FECC4
:100B880009F0010120EE34F00101AC51D926010130
:100B9800AD51DA22010110EE34F00101AC51E12629
:100BA8000101AD51E222E7500001C96F0001C929D6
:100BB800030BDF6EB5C1D9FFB6C1DAFF010EDF6ED8
:100BC800010E12000001A3C0A8F00001A96B0001EA
:100BD80020EE34F00001A151D9260001A251DA22F9
:100BE800DF500001AA6F0001AA510D0DF35000015A
:100BF800A1250001AB6FF4500001A2210001AC6FE8
:100C0800ABC0D9FFACC0DAFFDF50D8B402D0FF0EBA
:100C18001200000120EE01F00001AB51D9260001BD
:100C2800AC51DA220001A3C0DFFF000120EE02F080
:100C38000001AB51D9260001AC51DA220001A4C051
:100C4800DFFF030E0001AB250001976F000E0001C6
:100C5800AC210001986F0001A6C09AF00001A5C060
:100C680099F0A8C09BF0A9C09CF0C7EC09F000015E
:100C780020EE34F00001A151D9260001A251DA2258
:100C8800000110EE34F00001A151E1260001A2514B
:100C9800E222E7500001A76F0001A729030BDF6ECE
:100CA800ABC0D9FFACC0DAFF010EDF6E010E120037
:100CB80020EE35F00B50D9260C50DA22DF50146E96
:100CC80014500D0DF3500B24176EF4500C20186EB1
:100CD800010E17C0D9FF18C0DAFFDF6250D020EE2E
:100CE80001F01750D9261850DA22DF500D5CD8B021
:100CF80002D0FD0E120020EE01F01750D926185030
:100D0800DA22DF50126E1250156E166A11C002F008
:100D180010C001F0030E1724126E000E1820136E77
:100D280012C003F013C004F015C005F016C006F099
:100D380014EC0AF020EE35F00B50D9260C50DA22CC
:100D480010EE35F00B50E1260C50E222E750126EFF
:100D58001228030BDF6E20EE02F01750D926185028
:100D6800DA220EC0E1FF0FC0E2FFDFCFE7FF17C0B6
:100D7800D9FF18C0DAFF000EDF6E15501200FC0E06
:100D880012000001976F000120EE0CF00001CC5119
:100D9800D9260001CD51DA22010EDF6E000120EEC6
:100DA8000AF00001CC51D9260001CD51DA22000EFB
:100DB800DF6E00019751D8B43DD0C7AA21D00001F9
:100DC80020EE0DF00001CC51D9260001CD51DA22D8
:100DD800040EDF6E000120EE0FF00001CC51D92681
:100DE8000001CD51DA22DF2A000120EE0EF00001C9
:100DF800CC51D9260001CD51DA22160EDF6E120031
:100E0800C7A40CD0000120EE0DF00001CC51D9266A
:100E18000001CD51DA22090EDF6E1200000120EE2A
:100E28000DF00001CC51D9260001CD51DA22060E71
:100E3800DF6E1200000120EE0DF00001CC51D92622
:100E48000001CD51DA22050EDF6E12000DC012F03E
:100E5800136A20EE34F00B50D9260C50DA22DF50FA
:100E6800146E14500D0DF3500B24156EF4500C2015
:100E7800166E15C0D9FF16C0DAFFDF50D8B402D0FD
:100E8800FF0E120020EE01F01550D9261650DA2276
:100E98000DC0DFFF20EE02F01550D9261650DA22D9
:100EA8000EC0DFFF030E1524016E000E1620026E21
:100EB80010C004F00FC003F012C005F013C006F014
:100EC80014EC0AF020EE34F00B50D9260C50DA223C
:100ED80010EE34F00B50E1260C50E222E750116E70
:100EE8001128030BDF6E15C0D9FF16C0DAFF010EFB
:100EF800DF6E010E1200000E1A6E210E196E060E1C
:100F080031241B6E000E32201C6E20EE0AF0315088
:100F1800D9263250DA22DF50CFEC0BF0ADA2120006
:100F280020EE0BF03150D9263250DA22DF501E6EF7
:100F380020EE0AF03150D9263250DA22DF501E5CFA
:100F4800D8B01DD020EE0BF03150D9263250DA221D
:100F5800DF2A20EE0BF03150D9263250DA22DF504A
:100F68001E6E1F6A050E1E26000E1F221E503124FB
:100F7800D96E1F503220DA6EDF50AE6E120020EEAE
:100F88000AF03150D9263250DA22000EDF6E9D98D1
:100F98001200EACFBEF0E1CFBFF0E2CFC0F0D9CF68
:100FA800C1F0DACFC2F0F3CFC3F0F4CFC4F0F6CF7C
:100FB800C5F0F7CFC6F0F8CFC7F0F5CFC8F09EA6BA
:100FC80003D09E9662EC00F0F2A403D0F29458ECA1
:100FD8000CF040EC09F0C8C0F5FFC7C0F8FFC6C068
:100FE800F7FFC5C0F6FFC4C0F4FFC3C0F3FFC2C01B
:100FF800DAFFC1C0D9FFC0C0E2FFBFC0E1FFBEC079
:10100800EAFFBDC0E9FFBCC0FBFFBBC0FAFF11008F
:101018000001CB6F000EAD6E000EAC6E0001CBB1BF
:10102800AD880001CBA302D0AD8CAC8C0001CBB550
:10103800AD8E0001CBA702D0AC8801D0AC8A0001EC
:10104800CBB9AD840001CBBBAC860001CBAD02D0DF
:101058009D8A01D09D9A0001CBAF02D09D8801D016
:101068009D98C9C0B0FF0001CAC0A2F1A2C1A3F1F6
:101078000101A46B0101A3517F6EAD8AAC8E1200F1
:10108800000E0001606F0001000E0001CA6F000130
:10109800610E0001C96FADEC08F00101010E0001FD
:1010A800CA6F01016C0E0001C96FADEC08F00101B7
:1010B800010E0001CA6F0101000E0001C96FADECFD
:1010C80008F00201020E0001CA6F0201430E00017E
:1010D800C96FADEC08F00101010E0001CA6F0101F2
:1010E800360E0001C96FADEC08F012000001CAC04D
:1010F800CDF00001C9C0CCF0000120EE0AF00001DB
:10110800CC51D9260001CD51DA22000EDF6E000144
:1011180020EE0CF00001CC51D9260001CD51DA2285
:10112800000EDF6E000120EE0DF00001CC51D92633
:101138000001CD51DA22040EDF6E000120EE0FF01F
:101148000001CC51D9260001CD51DA22000EDF6E04
:101158001200000120EE34F00001C951D926000127
:10116800CA51DA22000EDF6E000120EE35F00001D0
:10117800C951D9260001CA51DA22000EDF6E000ECD
:101188000001CB6F030E0001CB6501D012000001F6
:10119800CB510D0DF3500001C925D96EF450000153
:1011A800CA21DA6E000EDF6E0001CB2B030E0001A0
:1011B800CB65EDD7120072EC0AF00101A5510101CF
:1011C800A411D8B41200010E0001606F0101010ED4
:1011D8000001CA6F01016C0E0001C96F00EC0BF031
:1011E8000009D8B404D0000E0001606F120000019D
:1011F800000E0001CA6F0001610E0001C96F00EC0A
:101208000BF00009D8B404D0000E0001606F120082
:101218000A0E2AEC0CF0DAD70101A551A411D8B4B2
:1012280026D0010E0001C96F06D00101D890A4375D
:10123800A5370001C92B0101A5AFF7D70101A451BA
:101248000101A25D0101A5510101A359D8A008D04F
:101258000101A4510101A25F0101A5510101A35B94
:101268000101D890A533A4330001C92FE7D7A2C143
:10127800A2F1A3C1A3F112000001606701D012001E
:1012880053EC0AF000019A5100019911D8A41200F8
:1012980072EC0CF00001985100019711D8B41200BB
:1012A8000101010E0001986F01016C0E0001976F9A
:1012B80019EC0BF00009D8A412000001000E00017F
:1012C800986F0001610E0001976F19EC0BF000098F
:1012D800D8B47EEC0CF01200BAC1D9FFBBC1DAFF5A
:1012E800DE2A000EDD22BAC1D9FFBBC1DAFF010137
:1012F800DECFA2F10101DDCFA3F1000E0101A56F40
:101308000A0E0101A46F10EC09F00101A251090AAB
:101318000101A311D8A412000A0E0101B76F01013F
:10132800BBC1B9F10101BAC1B8F1020E61EC0BF011
:101338000001CB6F12000101A5C1ABF10101A4C1ED
:10134800AAF10101A3C1A9F10101A2C1A8F110D01C
:10135800AAC1D9FFABC1DAFFA8C1E1FFA9C1E2FF69
:10136800DFCFE7FF0101AA4BAB2B0101A84BA92B4B
:101378000101A607D8A0A7070101A629D8B4A72963
:10138800D8B41200E5D700019AC0A0F0000199C0B6
:101398009FF0000198C09EF0000197C09DF010D00A
:1013A8009FC0D9FFA0C0DAFF9DC0E1FF9EC0E2FF49
:1013B800DFCFE7FF00019F4BA02B00019D4B9E2B29
:1013C80000019B07D8A09C0700019B29D8B49C2941
:1013D800D8B41200E5D720EE0BF03150D9263250A0
:1013E800DA22000EDF6E20EE0AF03150D926325094
:1013F800DA220101BAC1DFFF210E0101B76F010135
:10140800BDC1B9F10101BCC1B8F120EE0AF03150FB
:10141800D9263250DA22DF504AEC0BF09D881200B0
:1014280004C00AF003C009F002C008F001C007F0C8
:101438000ED009C0D9FF0AC0DAFF07C0E1FF08C013
:10144800E2FFDFCFE7FF094A0A2A074A082A05060A
:10145800D8A006060528D8B40628D8B41200E9D7BB
:10146800F2AC07D0000E0101A36F000E0101A26FBC
:1014780012006AEC0CF00001CA510001C911D8B47D
:1014880007D0000E0101A36F000E0101A26F120028
:10149800000E0101A36F010E0101A26F1200F2AC50
:1014A80007D0000E00019A6F000E0001996F12001C
:1014B80072EC0CF00001985100019711D8B407D0D4
:1014C800000E00019A6F000E0001996F1200000EC5
:1014D80000019A6F010E0001996F120034EC0AF0B6
:1014E8000101A3510101A211D8A40FD06AEC0CF09C
:1014F8000001CA510001C911D8A407D0000E01018A
:10150800A56F010E0101A46F1200000E0101A56F65
:10151800000E0101A46F12000001CB6F0001C95138
:10152800F30B9A6ECBC0CAF07F0E0001CA170001F8
:10153800D890CA35CD6E000ECF6E000ECE6E9E903E
:101548000001CBAF02D09D8001D09D909ABE9A86B3
:10155800CD8012009EAA0CD01BEC0CF01B6E200E46
:10156800176E000E196E1B0E186E010E09EC0CF0AA
:1015780033A61200AC98AC881F0E176E000E196EB9
:10158800000E186E000E09EC0CF012000001CB6F73
:101598000001000E0101AD6F0001610E0101AC6F89
:1015A800CBC0AEF10101B9C1B0F10101B8C1AFF1D1
:1015B8000101BBC1B2F10101BAC1B1F15FEC04F0A4
:1015C80012000001CB6F0101010E0101AD6F010195
:1015D8006C0E0101AC6FCBC0AEF10101B9C1B0F125
:1015E8000101B8C1AFF10101BBC1B2F10101BAC13A
:1015F800B1F15FEC04F01200000120EE35F00001BB
:10160800C951D9260001CA51DA22DF500001CB6F37
:101618000001CB510D0DF3500001C925D96EF450CE
:101628000001CA21DA6EDF501200000120EE35F009
:1016380000019751D92600019851DA22DF500001A4
:10164800996F000199510D0DF35000019725D96E3E
:10165800F45000019821DA6EDF50120002EE43F0D8
:10166800360EEE6AE806FDE101EE00F0A20EEE6A23
:10167800E806FDE100EE60F0370EEE6AE806FDE1EF
:10168800336A000EF86E000118EF03F00001CA6F0C
:101698000101010E0101AD6F0101000E0101AC6FE6
:1016A800CAC0AEF1B7C1AFF10101B9C1B1F10101D1
:1016B800B8C1B0F170EC05F012000001CA6F020168
:1016C800020E0101AD6F0201430E0101AC6FCAC0E9
:1016D800AEF1B7C1AFF10101B9C1B1F10101B8C1B2
:1016E800B0F170EC05F012000001CAC032F0000140
:1016F800C9C031F020EE04F03150D9263250DA2238
:10170800000EDF6E20EE0DF03150D9263250DA226D
:10171800000EDF6E12000001B06F0101010E000122
:10172800A26F01016C0E0001A16FB0C0A3F0ADC0A3
:10173800A4F00001AFC0A6F00001AEC0A5F0E6EC31
:1017480005F0120092800F014891C29CC29EC250BF
:10175800C30B0C09C26EC18EC19CC150C70B0809CE
:10176800C16EC150F80B0609C16EC280120000019B
:10177800C96F9388938AC9C0C8FF000EC76E000E50
:10178800C66E000EC56E0E0EC612C78E8188818A7F
:10179800C580C68A12001D6E0101010E0C6E010182
:1017A800000E0B6E1DC00DF01AC00FF019C00EF020
:1017B8001CC011F01BC010F05CEC06F01200000118
:1017C800C96F0001C9517F0BD56E000ED76E000E90
:1017D800D66EF2940001C9AF02D0F28A01D0F29A13
:1017E800D58E12004FEC0CF001C005F002C006F0D7
:1017F8000A0E076E0B0E086E0C0E096E000E026EB6
:10180800000E016E46EC0CF012001A6E0001000E7C
:101818000C6E0001610E0B6E1AC00DF017C00EF0B1
:1018280019C010F018C00FF02AEC07F01200F20EE1
:101838003316ACAC03D03390ACB03380ACB4338443
:10184800ACB23386AFCF01F0015012000001C96F6E
:10185800FA0E00F0E82EFDD70001C92FF9D71200C3
:1018680001010001A9C1CAF001010001A8C1C9F024
:101878001200C9C0D9FFCAC0DAFF000EDE6E000E22
:10188800DD6E120001C003F002C004F004C0CFFFF7
:1018980003C0CEFF1200CECF03F0CFCF04F003C0B9
:1018A80001F004C002F01200000E0001986F000E53
:1018B8000001976F61EC0CF0120097C099F098C086
:1018C8009AF09AC0D7FF99C0D6FF1200000EF2AE68
:1018D800010E0001C96F0001CA6B1200000EF2AEC2
:1018E800010E0001976F0001986B1200D08EF28EE6
:0A18F800F28C1200D38E03001200E0
:08FFF8008AF795FFF2F9FFF111
:00000001FF
